:100000000C946D010C949E010C949E010C949E0125
:100010000C949E010C949E010C949E010C949E01E4
:100020000C949E010C949E010C949E010C949E01D4
:100030000C949E010C949E010C949E010C949E01C4
:100040000C949E010C94E00D0C949E010C949E0166
:100050000C949E010C949E010C949E010C940E0E27
:100060000C949E010C94820E0C94580E0C949E01DC
:100070000C949E010C949E010C949E010C949E0184
:100080000C94B20D0C949E010C949E010C949E0154
:100090000C949E010C949E010C949E010C949E0164
:1000A0000C949E010C949E010C94840D0C949E0162
:1000B0000C949E010C949E010C949E010C94560D80
:1000C0000C949E010C949E010C949E010C949E0134
:1000D0000C949E010C949E010C949E010C949E0124
:1000E0000C949E01084AD73B3BCE016E84BCBFFDF9
:1000F000C12F3D6C74319ABD56833DDA3D00C77FF8
:1001000011BED9E4BB4C3E916BAAAABE0000008090
:100110003F000C9408060C9444060C9491060C9431
:10012000B4050C9458020C944B020C94A5050C9445
:10013000B80E0C9470020C94F21C0C9474020C9483
:100140005E020C9479020C947E020C9416060C94B8
:1001500078050C9462020C9447020C9439020C94BA
:1001600043020C9466020C946C020C9454020C949E
:100170004E020C943F020C947A024E414E494E4975
:100180005459494E46CDCCCC3D0AD7233C17B7D164
:100190003877CC2B329595E6241FB14F0A0000200A
:1001A000410000C84200401C4620BCBE4CCA1B0E89
:1001B0005AAEC59D7400002100240027002A002D9E
:1001C000003000330001010000040107010A0100B2
:1001D000002200250028002B002E003100340002F0
:1001E000010000050108010B01000020002300268A
:1001F0000029002C002F003200000100000301063E
:10020000010901050505050705080808080202029D
:10021000020A0A08080404040401010101010101A1
:10022000010303030303030303040707070C0C0C78
:100230000C0C0C0C0C020202020606060606060650
:10024000060B0B0B0B0B0B0B0B01021020200808ED
:100250001020401020408002010201080402010128
:100260000204081020408080402010080402018011
:100270000402018040201008040201080402010168
:100280000204081020408001020408102040800071
:10029000000A0B02090C0D0E080703040100000000
:1002A000000000000000000000000000000000004E
:1002B000000000000000000000000012111000000B
:1002C000000000000000000000000000000000002E
:1002D000000000000000B80EF21C11241FBECFEF7A
:1002E000D1E2DEBFCDBF00E00CBF12E0A0E0B2E083
:1002F000E6EFF8E400E00BBF02C007900D92A833D0
:10030000B107D9F723E0A8E3B2E001C01D92AB3FEB
:10031000B207E1F711E0CCE6D1E000E006C021979A
:100320000109802FFE010E944B20CB36D10780E0CF
:100330000807A9F70E947F0F0C9469240C94000011
:100340002091E1033091E2038217930738F4209162
:10035000DD033091DE032115310529F4109272027C
:1003600082E792E00895820F931F08958F929F92E3
:10037000AF92BF92FF920F931F93CF93DF93F090B2
:1003800004032FE22F1508F44CC02091060308E562
:1003900012E0021B110927FD1395000F111F000F1A
:1003A000111F20910503C8E8D0E0C21BD10927FD29
:1003B000D395CC0FDD1FCC0FDD1F4E010D2E000C91
:1003C000AA08BB089801012E000C440B550B2819F4
:1003D00039094A095B09DC010E94062024EB30E060
:1003E00040E050E00E94DC1F820E931EA41EB51E4A
:1003F0008C169D062CF0E801801691060CF4E401A1
:100400002297CC0FDD1F2FB7F8948F2D90E0FC01C1
:10041000EE0FFF1FE80FF91FED58FD4FD283C18388
:100420002FBFDF91CF911F910F91FF90BF90AF90A1
:100430009F908F9008958150823108F05AC0E82F24
:10044000F0E08827E95DFD4F8F4F0C944B20470269
:100450004B0239023F02430279024E025402580213
:100460005E02620266026C027002790274027A0213
:100470007E02809180008F77809380000895809124
:1004800080008F7DF9CF80918000877FF5CF84B584
:100490008F7784BD089584B58F7DFBCF8091B000A8
:1004A0008F778093B00008958091B0008F7DF9CF51
:1004B000809190008F7780939000089580919000B4
:1004C0008F7DF9CF80919000877FF5CF8091A0003C
:1004D0008F778093A00008958091A0008F7DF9CF41
:1004E0008091A000877FF5CF809120018F77809346
:1004F00020010895809120018F7DF9CF8091200106
:10050000877FF5CFCF93DF93282F30E0F901E157B4
:10051000FD4F8491F901E75BFD4FD491F901ED5F47
:10052000FD4FC491CC23A1F081110E941B02EC2F3E
:10053000F0E0EE0FFF1FE751FE4FA591B491EC9153
:10054000ED2381E090E009F480E0DF91CF91089500
:1005500080E090E0FACF1F93CF93DF93C82FD0E0D5
:10056000FE01EC55FC4F10811123B1F0CC0FDD1FC3
:10057000CC0FDD1FCA59DD4FEA81FB8180810E94CB
:100580008202892B49F0E881F98180810E948202F0
:1005900011E0892B09F010E0812FDF91CF911F919D
:1005A00008951F93CF93DF93282F30E0F901E1578F
:1005B000FD4F8491F901E75BFD4FD491F901ED5FA7
:1005C000FD4FC491CC23A9F0162F81110E941B026C
:1005D000EC2FF0E0EE0FFF1FE153FE4FA591B49119
:1005E0008FB7F894EC91111108C0D095DE23DC93FD
:1005F0008FBFDF91CF911F910895DE2BF8CF5F92CF
:100600006F927F928F929F92AF92BF92CF92DF9222
:10061000EF92FF920F931F93CF93DF93582E6A01AF
:100620007B01C82FD0E026E0829FF0011124E65A1A
:10063000FD4F0280F381E02D8081F7FE3DC060E038
:100640000E94D102F094E094D094C094C11CD11CBB
:10065000E11CF11C812C912C540126E02C9FC0013F
:100660002D9F900D1124FC01E65AFD4F3F01CBE474
:10067000D0E0C814D904EA04FB0411F1852D0E94CE
:10068000AB0281111DC0F3010081118161E0F8010D
:1006900080810E94D102CE010197F1F760E0F8015C
:1006A00080810E94D102CE010197F1F7FFEF8F1AEE
:1006B0009F0AAF0ABF0ADDCF61E00E94D102CACF14
:1006C000DF91CF911F910F91FF90EF90DF90CF902E
:1006D000BF90AF909F908F907F906F905F900895A4
:1006E000CF93DF9390E0FC01E75BFD4F24918D5F9A
:1006F0009D4FFC0184918823D1F090E0880F991FD1
:10070000FC01EB54FE4FA591B491FC01E153FE4F67
:10071000C591D49161110EC09FB7F8948C91E22FCE
:10072000E0958E238C932881E223E8839FBFDF919D
:10073000CF9108958FB7F894EC91E22BEC938FBF93
:10074000F6CFCF92DF92EF92FF920F931F93CF934A
:10075000DF936901E80196E0899FF0011124E65AD0
:10076000FD4F3183208313830283F582E48294E07A
:10077000899FF0011124EC55FC4F41A352A363A3C0
:1007800074A361E0F90180810E94700361E08881B7
:100790000E94700361E0F70180810E94700360E0B5
:1007A000F60180810E94D10260E088810E94D1021E
:1007B00061E0F7018081DF91CF911F910F91FF9050
:1007C000EF90DF90CF900C94D102AF92BF92CF9276
:1007D000DF92EF92FF920F931F93CF93DF936B0102
:1007E0007A01EC01CA5ADD4F28813CE0389F800134
:1007F000399F100D1124A0900303B12C27FF1FC0B7
:10080000FB011182108288818F5F88838881980123
:10081000280F311D87FD3A95F6012A153B051CF47A
:1008200088818C30C4F180819181049680349C4908
:1008300008F473C0F60180819181049670C08881AC
:100840009801280F311D87FD3A952A153B05DCF6E6
:100850008881A801480F511D87FD5A95FA01EE0FB6
:10086000FF1FE40FF51FED58FD4F808186FFCBCFB2
:100870008881F801E80FF11D87FDFA95CF01EE0F91
:10088000FF1FE80FF91FED58FD4F808160E08F7367
:100890000E94D102B8CF808191812881A801420FA6
:1008A000511D27FD5A959A01FA01EE0FFF1FE20F25
:1008B000F31FED58FD4F21813281820F931FF70105
:1008C0009183808388819801280F311D87FD3A9597
:1008D000F901EE0FFF1FE20FF31FED58FD4F80816E
:1008E00086FF22C08881080F111D87FD1A95F80127
:1008F000EE0FFF1FE00FF11FED58FD4F808161E00B
:100900008F73DF91CF911F910F91FF90EF90DF9048
:10091000CF90BF90AF900C94D10280E49CE9F70196
:10092000918380838FEF8883DF91CF911F910F9107
:10093000FF90EF90DF90CF90BF90AF9008953FB7BA
:10094000F8948091520290915302A0915402B09178
:10095000550226B5A89B05C02F3F19F00196A11D91
:10096000B11D3FBFBA2FA92F982F8827BC01CD01F9
:10097000620F711D811D911D42E0660F771F881F58
:10098000991F4A95D1F708958F929F92AF92BF9287
:10099000CF92DF92EF92FF924B015C010E949F0485
:1009A0006B017C010E949F046C197D098E099F09CF
:1009B000683E734081059105A8F321E0821A9108F1
:1009C000A108B10888EEC80E83E0D81EE11CF11C16
:1009D00081149104A104B10429F7FF90EF90DF90F6
:1009E000CF90BF90AF909F908F9008958AE590E050
:1009F0000E94B60164E670E080E090E00C94C404CC
:100A00006F927F928F929F92AF92BF92CF92DF921E
:100A1000EF92FF920F931F93CF93DF93782EC82FFF
:100A2000D0E0FE01EE0FFF1FEE0FFF1FEC55FC4F55
:100A300020E030E0A90161A172A183A194A10E94EC
:100A4000B51E87FF2CC08FEF9FEFCC55DC4F288160
:100A5000222309F43DC020E436E0829F4001839FB9
:100A6000900C929F900C1124092C000CAA08BB0832
:100A700003E010E0CC24DD24C81AD90A0D2C000CA8
:100A8000EE08FF0866246394872D0E94AB02811153
:100A900009C0B701A601872D0E94FF02F5CF81E0B2
:100AA00090E0D3CF188264E670E080E090E00E948E
:100AB000C404B501A401872D0E94FF0264E670E022
:100AC00080E090E00E94C404688201501109E1F6C0
:100AD000DF91CF911F910F91FF90EF90DF90CF901A
:100AE000BF90AF909F908F907F906F9008950895E2
:100AF000AF92BF92CF92DF92EF92FF920F931F932C
:100B0000CF93DF936C017B018B01040F151FEB0169
:100B10005E01AE18BF08C017D10759F06991D60120
:100B2000ED91FC910190F081E02DC6011995892B82
:100B300079F7C501DF91CF911F910F91FF90EF9051
:100B4000DF90CF90BF90AF900895FC01538D448DFE
:100B5000252F30E0842F90E0821B930B541710F068
:100B6000CF96089501970895FC01918D828D981775
:100B700061F0A28DAE0FBF2FB11D5D968C91928D4D
:100B80009F5F9F73928F90E008958FEF9FEF08957E
:100B90002FB7F89480916E0290916F02A09170022D
:100BA000B09171022FBF80930F0390931003A09315
:100BB0001103B093120387E093E00E94B40597FFFE
:100BC00026C02FB7F89480916E0290916F02A09189
:100BD0007002B09171022FBF40910F03509110032A
:100BE0006091110370911203841B950BA60BB70B38
:100BF00040910B0350910C0360910D0370910E0313
:100C000084179507A607B707B0F28FEF9FEF0895F7
:100C1000FC01918D828D981731F0828DE80FF11DC6
:100C2000858D90E008958FEF9FEF0895FC01918DE1
:100C3000228D892F90E0805C9F4F821B91098F73DA
:100C400099270895FC01A48DA80FB92FB11DA35AAF
:100C5000BF4F2C91848D90E001968F739927848FDC
:100C6000A689B7892C93A089B1898C9183708064FF
:100C70008C93938D848D981306C00288F389E02DA0
:100C800080818F7D80830895EF92FF920F931F9351
:100C9000CF93DF93EC0181E0888F9B8D8C8D98132F
:100CA0001AC0E889F989808185FF15C09FB7F8943B
:100CB000EE89FF896083E889F98980818370806487
:100CC00080839FBF81E090E0DF91CF911F910F91D2
:100CD000FF90EF900895F62E0B8D10E00F5F1F4FE1
:100CE0000F731127E02E8C8D8E110CC00FB607FCF0
:100CF000FACFE889F989808185FFF5CFCE010E947E
:100D00002206F1CFEB8DEC0FFD2FF11DE35AFF4FC3
:100D1000F0829FB7F8940B8FEA89FB89808180620B
:100D2000CFCFCF93DF93EC01888D8823B9F0AA89C8
:100D3000BB89E889F9898C9185FD03C0808186FD96
:100D40000DC00FB607FCF7CF8C9185FFF2CF8081E5
:100D500085FFEDCFCE010E942206E9CFDF91CF9132
:100D6000089587E093E00E94160621E0892B09F49C
:100D700020E0822F089580E090E0892B29F00E94E6
:100D8000B10681110E94000080E090E0892B49F0BB
:100D900080E090E0892B29F00E94000081110E94E0
:100DA000000080E090E0892B49F080E090E0892B02
:100DB00029F00E94000081110E94000080E090E074
:100DC000892B49F080E090E0892B29F00E940000F7
:100DD00081110C94000008954091E1035091E203C9
:100DE0008417950750F56115710539F19A01281B93
:100DF000390B6217730708F49B01E091DD03F09152
:100E0000DE03421B530B5093E2034093E103481B64
:100E1000590BBC01620F731F6E0F7F1F8E0F9F1F38
:100E20000E944024E091DD03F091DE038091E10314
:100E30009091E203E80FF91F10820895CF93DF939A
:100E40002091E1033091E203232B89F0FC01C09152
:100E5000DD03D091DE0360817181CE010E944F24B9
:100E6000009729F08C1B9D0BDF91CF9108958FEF98
:100E70009FEFFACF2F923F924F925F926F927F92A5
:100E80008F929F92AF92BF92CF92DF92EF92FF929A
:100E90000F931F93CF93DF93CDB7DEB7A7970FB60E
:100EA000F894DEBF0FBECDBF2B013C012D8F3E8FCE
:100EB0004F8F58A3ED86FE860F87188B86012D85F0
:100EC0003E854F855889CA01B9010E941B1F6BA33B
:100ED0007CA38DA39EA320E030E040EA50E4C5014E
:100EE000B4010E941B1F69837A838B839C839B01BF
:100EF000AC016D857E858F8598890E94EF206B01FE
:100F00007C0120E030E0A9010E94BE2118160CF0FF
:100F10002AC1C701B6010E946121698F7A8F8B8F28
:100F20009C8F698D7A8D8B8D9C8D0E94BC1E6B0170
:100F30007C01A30192016D8D7E8D8F8D98A10E9401
:100F400053202B013C0120E030E0A9010E94BE218A
:100F5000181624F077FA709477F8709429813A8102
:100F60004B815C81C301B2010E94EF202B013C0147
:100F700020E030E0A9010E94BE21181624F077FA83
:100F8000709477F87094A3019201C701B6010E9492
:100F900053200E94612169837A838B839C83023072
:100FA000110509F0F1C020E030E0A901C501B4014C
:100FB0000E94BE2118160CF0DAC089869A86AB868C
:100FC000BC86C12CD12C760110E000E0312C212C04
:100FD000412C512C612C712C898D9A8DAB8DBC8D3F
:100FE00029813A814B815C81281739074A075B07C1
:100FF0000CF0AFC320E030E040EA50E469857A8528
:101000008B859C850E941B1F4B015C0169817A8145
:101010008B819C810E94BC1E9B01AC01C501B40167
:101020000E941B1F2D853E854F8558890E945320A5
:101030006D837E838F8398879B01AC010E941B1F69
:101040009B01AC016BA17CA18DA19EA10E945320AC
:101050000E94D121698B7D8B89A39AA345E050E042
:1010600060E070E080E00E94FF029201A3016989C4
:101070007D8989A19AA10E9453204B015C0120E047
:1010800030E0A9010E94BE2124013501181624F088
:1010900077FA709477F8709421962CAD3DAD4EADF3
:1010A0005FAD2197C301B2010E94B51E87FF27C023
:1010B000A3019201C701B6010E9454206B017C017B
:1010C000AC019B0121966CAD7DAD8EAD9FAD21979E
:1010D0000E94B51E18160CF452C021962CAD3DADE1
:1010E0004EAD5FAD2197C701B6010E9453206B0141
:1010F0007C011DAD0EAD3FAC21962FAC2197212F69
:10110000302F432D522DC501B4010E945420219649
:101110002CAD3DAD4EAD5FAD21970E94EF200E94FA
:101120006121AB01BC0181E00E94FF022D813E8163
:101130004F8158856D8D7E8D8F8D98A10E94B51E33
:1011400018160CF006C389819A81AB81BC81019687
:10115000A11DB11D89839A83AB83BC8349885D88B7
:1011600069A07AA039CFC701B6019058D4CEA501A5
:101170009401505829873A874B875C8722CF10E02B
:1011800000E0312C212CBBCF0130110509F0F3C058
:1011900020E030E0A901C501B4010E94BE2118166B
:1011A0000CF0DCC0898A9A8AAB8ABC8AC12CD12C0B
:1011B000760110E000E0312C212C21968CAD9DAD04
:1011C000AEADBFAD2197B0588D839E83AF83B887F6
:1011D000298D3A8D4B8D5C8D89819A81AB81BC8143
:1011E00082179307A407B5070CF0B3C220E030E0E4
:1011F00040EA50E469897A898B899C890E941B1F87
:101200004B015C0169817A818B819C810E94BC1EAB
:101210009B01AC01C501B4010E941B1F69877A873D
:101220008B879C879B01AC010E941B1F9B01AC011B
:101230006BA17CA18DA19EA10E9453200E94D1216F
:101240006D8B79A38AA39FA345E050E060E070E036
:1012500080E00E94FF022D853E854F8558896D896B
:1012600079A18AA19FA10E9453204B015C0120E03B
:1012700030E0A9010E94BE2124013501181624F096
:1012800077FA709477F87094A301920121966CAD6F
:101290007DAD8EAD9FAD21970E94BE2118162CF515
:1012A000A3019201C701B6010E9454206B017C0189
:1012B000AC019B0121966CAD7DAD8EAD9FAD2197AC
:1012C0000E94B51E18160CF451C021962CAD3DADF0
:1012D0004EAD5FAD2197C701B6010E9453206B014F
:1012E0007C011D810E813F802884212F302F432DCA
:1012F000522DC501B4010E94542021962CAD3DAD64
:101300004EAD5FAD21970E94EF200E946121AB019D
:10131000BC0181E00E94FF0229853A854B855C85EE
:101320006D8D7E8D8F8D98A10E94B51E18160CF0C4
:1013300010C229813A814B815C812F5F3F4F4F4F13
:101340005F4F29833A834B835C838D8999A1AAA13E
:10135000BFA18D879E87AF87B88B3ACFA501940137
:101360005058298B3A8B4B8B5C8B20CF10E000E0E0
:10137000312C212CBACF0430110509F0F8C020E03F
:1013800030E0A901C501B4010E94BE2118160CF07D
:10139000E1C08D8A9E8AAF8AB88EC12CD12C76018D
:1013A000212C312C00E010E0812C912CA12CB12CAF
:1013B00021962CAD3DAD4EAD5FAD2197505829879C
:1013C0003A874B875C87898D9A8DAB8DBC8D29813F
:1013D0003A814B815C81281739074A075B070CF07B
:1013E000B8C120E030E040EA50E46D897E898F8901
:1013F000988D0E941B1F2B013C0169817A818B8192
:101400009C810E94BC1E9B01AC01C301B2010E94E1
:101410001B1F9B01AC016D857E858F8598890E947D
:101420005320698B7A8B8B8B9C8B9B01AC010E9428
:101430001B1F9B01AC016BA17CA18DA19EA10E94F1
:1014400053200E94D1219B01AC0150582D833E8333
:101450004F8358874BEF5FEF6FEF7FEF80E00E9485
:10146000FF029401A5016D817E818F8198850E9484
:1014700053204B015C0120E030E0A9010E94BE2115
:1014800024013501181624F077FA709477F87094D7
:10149000A301920121966CAD7DAD8EAD9FAD2197DC
:1014A0000E94BE2118162CF5A3019201C701B601B6
:1014B0000E9454206B017C01AC019B0121966CAD14
:1014C0007DAD8EAD9FAD21970E94B51E18160CF410
:1014D00049C021962CAD3DAD4EAD5FAD2197C70102
:1014E000B6010E9453206B017C0129843A840B854C
:1014F0001C859101A801C501B4010E9454202196C8
:101500002CAD3DAD4EAD5FAD21970E94EF200E9406
:101510006121AB01BC0181E00E94FF0229893A8967
:101520004B895C896D8D7E8D8F8D98A10E94BE2127
:1015300087FF0FC189819A81AB81BC810196A11D72
:10154000B11D89839A83AB83BC838D809E80AF80DD
:10155000B88439CFD501C401B0588D8B9E8BAF8B29
:10156000B88F1BCF212C312C00E010E0C2CF03300C
:10157000110509F0EEC0CD84DE84EF84F888F7FA17
:10158000F094F7F8F09420E030E0A901C501B4012F
:101590000E94BE2118160CF0CFC08D829E82AF82B1
:1015A000B886812C912C5401212C312C00E010E0C4
:1015B000898D9A8DAB8DBC8D29813A814B815C815F
:1015C000281739074A075B070CF0C3C020E030E05A
:1015D00040EA50E46D817E818F8198850E941B1FB7
:1015E0002B013C0169817A818B819C810E94BC1E08
:1015F0009B01AC01C301B2010E941B1F9B01AC0106
:10160000505829873A874B875C879B01AC010E9421
:101610001B1F9B01AC016BA17CA18DA19EA10E940F
:1016200053200E94D1219B01AC0150582D873E8749
:101630004F87588B4BEF5FEF6FEF7FEF80E00E949B
:10164000FF02A70196016D857E858F8598890E948E
:1016500053206B017C0120E030E0A9010E94BE21F3
:1016600026013701181624F077FA709477F87094F1
:10167000A301920121966CAD7DAD8EAD9FAD2197FA
:101680000E94BE2118163CF5A3019201C501B401C8
:101690000E9454204B015C01AC019B0121966CAD72
:1016A0007DAD8EAD9FAD21970E94B51E18160CF42E
:1016B0004BC021962CAD3DAD4EAD5FAD2197C50120
:1016C000B4010E9453204B015C012DAC3EAC0FAD28
:1016D00021961FAD21979101A801C701B6010E9473
:1016E000542021962CAD3DAD4EAD5FAD21970E94AB
:1016F000EF200E946121AB01BC0181E00E94FF024A
:1017000029853A854B855C856D8D7E8D8F8D98A161
:101710000E94BE2187FF1DC089819A81AB81BC8157
:101720000196A11DB11D89839A83AB83BC83CD84AF
:10173000DE84EF84F8883CCFA501940150582D83B6
:101740003E834F8358872DCF212C312C00E010E0B1
:10175000C2CFA7960FB6F894DEBF0FBECDBFDF9104
:10176000CF911F910F91FF90EF90DF90CF90BF909E
:10177000AF909F908F907F906F905F904F903F9031
:101780002F9008954F925F926F927F928F929F92C7
:10179000AF92BF92CF92DF92EF92FF92CF93DF93FF
:1017A0002B013C0149015A0160E070E0CB010E942D
:1017B00053206B017C01A301920160E070E0CB013A
:1017C0000E9453209B01AC01C701B6010E94EF208B
:1017D0006B017C0120E030E0A9010E94BE211816B7
:1017E00024F0F7FAF094F7F8F094C701B6010E94DC
:1017F000C0206B017C0120E030E0A901C301B201EF
:101800000E94BE2118165CF420E030E0A901C50159
:10181000B4010E94B51EC4E0D0E0181614F4C1E073
:10182000D0E020E030E0A901C301B2010E94B51E62
:1018300018164CF020E030E0A901C501B4010E9467
:10184000B51E87FD42C020E030E0A901C301B2010E
:101850000E94B51E87FF12C020E030E0A901C5013B
:10186000B4010E94BE2187FD09C0A701960166E56B
:101870007EE089EC90E40E9453200BC0C330D10578
:10188000D9F426E53EE049E450E4C701B6010E94E0
:1018900054206B017C01C701B601DF91CF91FF900D
:1018A000EF90DF90CF90BF90AF909F908F907F9000
:1018B0006F905F904F900895249769F7A701960164
:1018C00066E57EE089E490E4D6CF20E030E0A9012F
:1018D000C301B2010E94B51E87FFD3CF20E030E0E4
:1018E000A901C501B4010E94BE2187FDCACFBDCFA9
:1018F000FC0180819181009711F00C94F61C60E04E
:1019000070E0CB0108950F931F93CF93DF93EC0109
:1019100088819981009759F02A813B8126173707E2
:1019200030F081E0DF91CF911F910F9108958B01ED
:101930006F5F7F4F0E944F23009759F099838883F0
:101940001B830A832C813D81232B59F7FC011082D4
:10195000E8CF80E0E7CFCF93DF93EC0188819981D6
:10196000009711F00E94C622198218821D821C82E3
:101970001B821A82DF91CF910895EF92FF920F930D
:101980001F93CF93DF93EC017B01198218821B8296
:101990001A821D821C82FB0101900020E9F7319719
:1019A0008F01061B170BB8010E94830C811109C01F
:1019B000CE01DF91CF911F910F91FF90EF900C948A
:1019C000AB0C1D830C83B70188819981DF91CF9186
:1019D0001F910F91FF90EF900C943924BF92CF92FA
:1019E000DF92EF92FF920F931F93CF93DF937C01CF
:1019F0006B018A014617570720F48D2D6A01062FC7
:101A0000182F64E272E0C7010E94BD0CC091E1038F
:101A1000D091E203CC16DD0668F50C171D0708F41B
:101A2000E801E091DD03F091DE03EC0FFD1FB080D3
:101A300010820091DD031091DE030C0D1D1D0115B8
:101A4000110571F0F80101900020E9F731976F015D
:101A5000C01AD10AB601C7010E94830C811115C0BA
:101A6000C7010E94AB0C8091DD039091DE03C80F8B
:101A7000D91FB882C701DF91CF911F910F91FF90BD
:101A8000EF90DF90CF90BF900895F701D582C48288
:101A9000B801808191810E943924E5CFFC018081C9
:101AA0009181009711F00C94C62208951F920F9215
:101AB0000FB60F9211240BB60F922F933F934F93B3
:101AC0005F936F937F938F939F93AF93BF93EF93A6
:101AD000FF9348E251E064E271E090E080E00E9410
:101AE000E503FF91EF91BF91AF919F918F917F910E
:101AF0006F915F914F913F912F910F900BBE0F907F
:101B00000FBE0F901F9018951F920F920FB60F9255
:101B100011240BB60F922F933F934F935F936F93C4
:101B20007F938F939F93AF93BF93EF93FF9348EA75
:101B300050E064EA70E083E090E00E94E503FF91EA
:101B4000EF91BF91AF919F918F917F916F915F9135
:101B50004F913F912F910F900BBE0F900FBE0F90A2
:101B60001F9018951F920F920FB60F9211240BB66B
:101B70000F922F933F934F935F936F937F938F9326
:101B80009F93AF93BF93EF93FF9348E950E064E9CD
:101B900070E082E090E00E94E503FF91EF91BF9139
:101BA000AF919F918F917F916F915F914F913F91F5
:101BB0002F910F900BBE0F900FBE0F901F90189596
:101BC0001F920F920FB60F9211240BB60F922F9304
:101BD0003F934F935F936F937F938F939F93AF93B5
:101BE000BF93EF93FF9348E850E064E870E081E032
:101BF00090E00E94E503FF91EF91BF91AF919F911B
:101C00008F917F916F915F914F913F912F910F90A5
:101C10000BBE0F900FBE0F901F9018951F920F9242
:101C20000FB60F9211242F933F938F939F93AF93EF
:101C3000BF9380916E0290916F02A0917002B0915B
:101C400071023091510223E0230F2D3758F5019690
:101C5000A11DB11D2093510280936E0290936F02DB
:101C6000A0937002B093710280915202909153023E
:101C7000A0915402B09155020196A11DB11D80930F
:101C8000520290935302A0935402B0935502BF9115
:101C9000AF919F918F913F912F910F900FBE0F9019
:101CA0001F90189526E8230F0296A11DB11DD2CFD3
:101CB0001F920F920FB60F9211240BB60F922F9313
:101CC0003F934F935F936F937F938F939F93AF93C4
:101CD000BF93EF93FF9387E093E00E942206FF916A
:101CE000EF91BF91AF919F918F917F916F915F9194
:101CF0004F913F912F910F900BBE0F900FBE0F9001
:101D00001F9018951F920F920FB60F9211240BB6C9
:101D10000F922F938F939F93EF93FF93E09117036D
:101D2000F09118038081E0911D03F0911E0382FD64
:101D30001DC09081809120038F5F8F7320912103BC
:101D4000821741F0E0912003F0E0E95FFC4F958FAE
:101D500080932003FF91EF919F918F912F910F908E
:101D60000BBE0F900FBE0F901F9018958081F2CF81
:101D700080910303803308F0BEC091E0980F9093E8
:101D800003038093040390E0FC01EE0FFF1FE80FB4
:101D9000F91FED58FD4F88EB9BE0928381831092F1
:101DA0000A031092090388EE93E0A0E0B0E080936C
:101DB0000B0390930C03A0930D03B0930E0385E1E6
:101DC00092E0909308038093070385EC90E0909352
:101DD00014038093130384EC90E090931603809394
:101DE000150380EC90E0909318038093170381EC27
:101DF00090E090931A038093190382EC90E0909303
:101E00001C0380931B0386EC90E090931E03809349
:101E10001D031092200310922103109222031092AE
:101E200023031092A5031092A403E5ECF3E088E0ED
:101E3000DF011D928A95E9F764E272E08DED93E08F
:101E40000E94BD0C1092E3031092E4031092E5038C
:101E50001092E6031092E7031092E8031092E90350
:101E60001092EA031092EB031092EC031092ED0330
:101E70001092EE038BE590E09093F0038093EF03D4
:101E80001092F10381E090E09093A7038093A60362
:101E90008CE390E09093A9038093A8031092AB0386
:101EA0001092AA031092AC031092B9031092BA03D5
:101EB0001092BB031092BC031092BD031092BE039C
:101EC0001092BF031092C0031092CD031092CE0364
:101ED0001092CF031092D0031092D1031092D2032C
:101EE0001092D3031092D4031092F2031092F303D2
:101EF0001092F40308958FEF8093040350CFCF9393
:101F0000DF93CDB7DEB7CC54D1090FB6F894DEBF5E
:101F10000FBECDBF789484B5826084BD84B58160E6
:101F200084BD85B5826085BD85B5816085BD8091A4
:101F30006E00816080936E0010928100809181001C
:101F40008260809381008091810081608093810014
:101F5000809180008160809380008091B1008460D6
:101F60008093B1008091B00081608093B000809137
:101F700091008260809391008091910081608093B4
:101F80009100809190008160809390008091A100E9
:101F900082608093A1008091A10081608093A10064
:101FA0008091A00081608093A000809121018260D7
:101FB0008093210180912101816080932101809192
:101FC000200181608093200180917A008460809359
:101FD0007A0080917A00826080937A0080917A0002
:101FE000816080937A0080917A00806880937A0083
:101FF0001092C100E0911703F091180382E08083F2
:10200000E0911303F09114031082E0911503F09115
:10201000160380E1808310921F03E0911B03F0916F
:102020001C0386E08083E0911903F0911A038081FC
:1020300080618083E0911903F0911A0380818860A8
:102040008083E0911903F0911A0380818068808376
:10205000E0911903F0911A0380818F7D808310E154
:10206000E12E12E0F12E0FE012E02EE032E04AE025
:1020700057ED63E27AEB80E00E94A1030DE0E02ED1
:1020800002E0F02E0CE012E02BE032E04AE057EDE7
:1020900063E27AE381E00E94A1038091040380332C
:1020A00008F052C061E089E00E947003809104034F
:1020B000282F30E0F901EE0FFF1FE20FF31FED585C
:1020C000FD4F9081907C996090831092050310924F
:1020D00006032CE0622F0E943F20829FB001112452
:1020E00030E020E0AB01420F531FFA01EE0FFF1F5B
:1020F000E40FF51FED58FD4F908196FD17C02F5F3F
:102100003F4F2C30310571F7813009F0F4C0109247
:10211000800082E0809381001092850010928400FC
:10212000B19A80916F00826080936F00E091040308
:102130008E2F90E0FC01EE0FFF1FE80FF91FED5806
:10214000FD4F80818064808390E080E00E94B60132
:102150008AE092E0909367028093660289E092E0C1
:10216000909369028093680260E08BE00E947003A4
:1021700060E08AE00E94700311E01093A40388E0FD
:1021800092E090936B0280936A0287E092E09093D2
:102190006D0280936C0260E08CE00E94700360E04E
:1021A0008DE00E9470031093A50386E092E0909367
:1021B00039028093380260E088E00E9470039E013B
:1021C0002F5E3F4F3AA329A3AE014B5F5F4F5CA345
:1021D0004BA32FB7F89480916E0290916F02A0915B
:1021E0007002B09171022FBF40914D0250914E028A
:1021F00060914F0270915002841B950BA60BB70B98
:10220000853F9140A105B105B0F080914C02882333
:1022100091F0E0915E02F0915F0261E080810E94A6
:10222000D102E0916402F091650261E080810E9438
:10223000D10210924C0287E093E00E941606181615
:10224000190614F00C94921B1092D5031092D60329
:102250001092D7031092D8031092D9031092DA0388
:102260001092DB031092DC031092E3031092E4035C
:102270001092E5031092E6031092E7031092E80330
:102280001092E9031092EA031092EB031092EC0310
:102290001092ED031092EE031092F2031092F303EA
:1022A0001092F40364E272E0CE0101960E94BD0C2C
:1022B0000E94C80597FD4BC08B33910509F447C0B8
:1022C000898B1A8A0D811E810F5F1F4FB801CE01C5
:1022D00001960E94830C882359F329813A818D81CC
:1022E0009E81BE016F5E7F4F820F931F0E94392433
:1022F0001E830D83DDCF823061F4109290008093B5
:102300009100109295001092940088BB8093710008
:102310000DCF833069F41092A00082E08093A10079
:102320001092A5001092A40089BB80937200FECE8B
:102330008111FCCE1092200182E080932101109245
:102340002501109224018ABB80937300EFCE809107
:10235000DD039091DE03009709F489C069817A81D9
:102360006115710509F481C04091DF035091E003CC
:102370002D813E814217530708F477C00E9439240B
:102380008D819E819093E2038093E1031E821D82E2
:10239000CE0101960E944E0D63E272E0CE010196DD
:1023A0000E94BD0CCE0101960E941E078C01CE0139
:1023B00001960E944E0D65E272E0CE0101960E94E8
:1023C000BD0CCE0101960E941E075C01CE01019654
:1023D0000E944E0D67E272E0CE0101960E94BD0C94
:1023E000CE0101960E941E076C01CE0101960E944B
:1023F0004E0D0F3F100709F48DC0480193E0890E80
:10240000911CA401B8016F5F7F4FCE0101960E941D
:10241000EE0C89819A81412C512C3201009719F0E0
:102420000E94FA1C2B017201CE0101960E944E0DF2
:10243000ABE54A16510491F58091EF039091F003BA
:102440008B35910519F081E08093F1038BE590E0E5
:102450009093F0038093EF0332E0E316F104D9F593
:10246000F092A703E092A60351C00E94C622898180
:102470009A819093DE038093DD038B819C819093FE
:10248000E0038093DF038D819E819093E20380932C
:10249000E1031A8219821C821B8278CFBAE54B169F
:1024A000510489F48091EF039091F0038A359105EE
:1024B00019F081E08093F103EAE5F0E0F093F00396
:1024C000E093EF03C9CFFCE14F16510449F4509259
:1024D000A7034092A60343E0E416F10409F207C003
:1024E0004114510451F41092A7031092A6035CE525
:1024F000E516F10409F4B4CF09C021E042165104F5
:1025000009F0AACF5092A7034092A603B401C801D4
:102510000E94EC068FEFA816B80699F1450193E0EA
:10252000890E911CA401B5016F5F7F4FCE0101960A
:102530000E94EE0C89819A81412C512C3201009726
:1025400019F00E94FA1C2B01CE0101960E944E0D3B
:10255000AAE24A16510429F45092A9034092A80312
:102560000CC0BBE24B165104B9F34114510409F0FD
:1025700005C11092A9031092A803B401C5010E94DD
:10258000EC06FFEFCF16DF0661F186010D5F1F4FEE
:10259000A801B6016F5F7F4FCE0101960E94EE0C3D
:1025A00089819A81009709F4F4C00E94FA1C7B018A
:1025B000CE0101960E944E0DE114F10409F0EDC028
:1025C0008091AA039091AB03892B19F081E080934D
:1025D000AC031092AB031092AA03B801C6010E948B
:1025E000EC0669E272E0CE0101960E94BD0CCE01BC
:1025F00001960E941E075C01CE0101960E944E0DBD
:102600006BE272E0CE0101960E94BD0CCE010196F4
:102610000E941E074C01CE0101960E944E0D6DE2F4
:1026200072E0CE0101960E94BD0CCE0101960E947F
:102630001E077C01CE0101960E944E0D6FE272E0F2
:10264000CE0101960E94BD0CCE0101960E941E078C
:102650008C01CE0101960E944E0D61E372E0CE0125
:1026600001960E94BD0CCE0101960E941E076C01CE
:10267000CE0101960E944E0D8091A6039091A70372
:1026800002970297D8F40F3F100711F00C94AE1B7D
:102690004FEFC416D40611F00C94281C1092AD0311
:1026A0001092AE031092AF031092B0031092B103D8
:1026B0001092B2031092B3031092B4035FEF851629
:1026C000950611F40C94DD1B8FEFA816B80611F0D7
:1026D0000C94B91C61E070E0C4010E94EC068DED21
:1026E00093E00E94780C6093E3037093E40380937B
:1026F000E5039093E60381E08093F2039FEFE916F0
:10270000F90609F486C081E08093F40364E272E084
:10271000CE0101960E94BD0CAFEFEA1AFA0AC7017A
:102720000E94A001FC018081082E000C990BC0972B
:102730000A9708F046C0C7010E94A001DC018C91F5
:10274000898B1A8A0D811E810F5F1F4FB801CE0140
:1027500001960E94830C882369F029813A818D813A
:102760009E81BE016F5E7F4F820F931F0E943924AE
:102770001E830D83FFEFEF1AFF0AD1CFECE34E1655
:10278000510409F0FACE6FEF7FEFC4010E94EC060E
:10279000E3CE60E070E0CB010ACFEA94EF2809F0C5
:1027A0001CCF8091AA039091AB03019719F081E0AF
:1027B0008093AC0381E090E09093AB038093AA03F5
:1027C0000CCFC7010E94A001FC0180818D3209F469
:1027D000B2CFC7010E94A001DC018C918B3209F4B9
:1027E000AACFC7010E94A001FC0180818E3209F4AA
:1027F000A2CFCE0101960E94780C6093EB037093F8
:10280000EC038093ED039093EE03CE0101960E94BA
:102810004E0D0091A6031091A7038090B9039090EC
:10282000BA03A090BB03B090BC03C090BD03D0908E
:10283000BE03E090BF03F090C0030430110508F020
:10284000A1C18091EF039091F0038A35910509F0C1
:1028500024C18091F203882309F14090E303509052
:10286000E4036090E5037090E603A5019401C301C1
:10287000B2010E94B51E882349F020E030E0A90192
:10288000C301B2010E94B51E87FF2FC01092D5036D
:102890001092D6031092D7031092D8038091F303BD
:1028A000882309F47EC04090E7035090E8036090CD
:1028B000E9037090EA03A7019601C301B2010E94E7
:1028C000B51E882349F020E030E0A901C301B20120
:1028D0000E94B51E87FF3AC01092D9031092DA0306
:1028E0001092DB031092DC035CC0A5019401C301CC
:1028F000B2010E9453202091C5033091C60340913C
:10290000C7035091C8030E94EF202B013C0120E037
:1029100030E0A9010E94BE2120E030E040E05FE30A
:1029200087FD0FC0C301B2010E9454200E946121A3
:102930006093D5037093D6038093D7039093D80305
:10294000ADCFC301B2010E945320F0CFA701960181
:10295000C301B2010E9453202091C9033091CA03E0
:102960004091CB035091CC030E94EF202B013C01FE
:1029700020E030E0A9010E94BE2120E030E040E0EC
:102980005FE387FDFAC0C301B2010E9454200E9498
:1029900061216093D9037093DA038093DB039093F2
:1029A000DC038092CD039092CE03A092CF03B0922D
:1029B000D003C092D103D092D203E092D303F0921D
:1029C000D4030C35110509F4E6C06091D50370916C
:1029D000D6038091D7039091D803611571058105C5
:1029E0009105C1F00E94BC1E2091C5033091C60321
:1029F0004091C7035091C8030E941B1FA501940179
:102A00000E9454206093B9037093BA038093BB0370
:102A10009093BC036091D9037091DA038091DB033A
:102A20009091DC036115710581059105C1F00E944B
:102A3000BC1E2091C9033091CA034091CB03509131
:102A4000CC030E941B1FA70196010E945420609393
:102A5000BD037093BE038093BF039093C0030C31FA
:102A6000110509F0C0C08091F203882341F0109253
:102A7000B9031092BA031092BB031092BC03809169
:102A8000F303882309F4AFC01092BD031092BE0374
:102A90001092BF031092C003A6C08B35910509F0B8
:102AA00080CF8091F2038823C9F04090E3035090D7
:102AB000E4036090E5037090E60320E030E0A901B4
:102AC000C301B2010E94B51E81112AC01092D50324
:102AD0001092D6031092D7031092D8038091F3037B
:102AE000882309F45ECF4090E7035090E80360909C
:102AF000E9037090EA0320E030E0A901C301B201CC
:102B00000E94B51E882309F4E7CE2091C9033091B5
:102B1000CA034091CB035091CC03C301B20124CF2F
:102B20002091C5033091C6034091C7035091C8035B
:102B3000C301B2010E94EF202B013C0120E030E0F4
:102B4000A9010E94BE2120E030E040E05FE387FD64
:102B50000FC0C301B2010E9454200E946121609302
:102B6000D5037093D6038093D7039093D803B6CF41
:102B7000C301B2010E945320F0CFC301B2010E94F1
:102B8000532005CF1092D5031092D6031092D7038D
:102B90001092D803A1CE8091F203882381F0809116
:102BA000E3039091E403A091E503B091E6038093E1
:102BB000B9039093BA03A093BB03B093BC03809175
:102BC000F303882381F08091E7039091E803A091BB
:102BD000E903B091EA038093BD039093BE03A093F1
:102BE000BF03B093C0038091F403882381F08091E8
:102BF000EB039091EC03A091ED03B091EE03809371
:102C0000C1039093C203A093C303B093C403809104
:102C10004C0281111FC0E0915E02F0915F0260E002
:102C200080810E94D10262E070E080E090E00E942A
:102C3000C404E0916402F091650260E080810E942A
:102C4000D10262E070E080E090E00E94C40481E084
:102C500080934C028091F403882391F020E030E0CF
:102C6000A9016091C1037091C2038091C303909147
:102C7000C4030E94B51E18160CF470C20E94F6041C
:102C80008091A6039091A7038230910508F091C02E
:102C90004091D5035091D6036091D7037091D8032A
:102CA000452B462B472B69F44091D9035091DA0309
:102CB0006091DB037091DC03452B462B472B09F415
:102CC00078C0019709F04FC20E94F6048091F20388
:102CD000882371F08091F30381110AC04091D503DC
:102CE0005091D6036091D7037091D8030E94FF02E0
:102CF0008091F303882379F08091F20381110BC056
:102D00004091D9035091DA036091DB037091DC03A9
:102D100081E00E94FF028091F303882309F449C0F7
:102D20008091F203882309F444C06091D903709123
:102D3000DA038091DB039091DC030E94BC1E6DA33B
:102D40007EA38FA398A76091D5037091D60380913D
:102D5000D7039091D8030E94BC1E6DA77EA78FA7B2
:102D600098AB20E030E0A9010E94B51E882359F0FD
:102D700020E030E0A9016DA17EA18FA198A50E945D
:102D8000B51E8111F5C16DA57EA58FA598A90E94DC
:102D90006121AB01BC0180E00E94FF026DA17EA118
:102DA0008FA198A50E946121AB01BC0181E00E9426
:102DB000FF022090A6033090A70392E02916310469
:102DC00009F044C420E030E0A9016091AD037091A6
:102DD000AE038091AF039091B0030E94B51E8111A4
:102DE00010C020E030E0A9016091B1037091B203FE
:102DF0008091B3039091B4030E94B51E882309F417
:102E000025C40E94F604A091C903ADAFB091CA03D6
:102E1000BEAFE091CB03EFAFF091CC032196FFAFB3
:102E200021972091C5033091C6034091C70350916B
:102E3000C8032DAB3EAB4FAB58AFC090B103D090A1
:102E4000B203E090B303F090B4038090AD03909090
:102E5000AE03A090AF03B090B0038091BD039091FA
:102E6000BE03A091BF03B091C0032D968CAF9DAF60
:102E7000AEAFBFAF2D972091B9033091BA03409107
:102E8000BB035091BC032DA33EA34FA358A7809131
:102E9000D1039091D203A091D303B091D40389A719
:102EA0009AA7ABA7BCA72091CD033091CE03409148
:102EB000CF035091D00329AB3AAB4BAB5CAB20E0D6
:102EC00030E0A9016DA97EA98FA998AD0E94B51E19
:102ED00087FF04C0B7FAB094B7F8B09420E030E0B0
:102EE000A901BDADAEADFFAD2196EFAD21976B2F22
:102EF0007A2F8F2F9E2F0E94B51E87FF04C0F7FAEE
:102F0000F094F7F8F094A501940169A97AA98BA926
:102F10009CA90E9454204B015C01A701960169A560
:102F20007AA58BA59CA50E9454206B017C01A5016C
:102F3000940169A97AA98BA99CA90E94532069AF21
:102F40007AAF8BAF9CAFA701960169A57AA58BA537
:102F50009CA50E94532025966CAF7DAF8EAF9FAF8E
:102F6000259729AD3AAD4BAD5CADCA01B9010E94C0
:102F70001B1F2B013C0125962CAD3DAD4EAD5FAD29
:102F80002597CA01B9010E941B1F9B01AC01C30117
:102F9000B2010E9454200E94D1216DA77EA78FA765
:102FA00098ABA50194016DA17EA18FA198A50E9467
:102FB000532029966CAF7DAF8EAF9FAF2997A501A7
:102FC000940169A97AA98BA99CA90E94BE2118160F
:102FD0000CF047C2A701960169A57AA58BA59CA50F
:102FE0000E94B51E18160CF43CC284E0482E512CE9
:102FF000A501940169A97AA98BA99CA90E94B51E73
:1030000018166CF0A701960169A57AA58BA59CA559
:103010000E94B51E87FF03C013E0412E512CA5016D
:10302000940169A97AA98BA99CA90E94B51E87FF62
:103030000DC0A701960169A57AA58BA59CA50E9444
:10304000BE2187FD03C0B2E04B2E512CA501940197
:103050006DA17EA18FA198A50E94BE2118166CF4C7
:10306000A70196016DA17EA18FA198A50E94B51E12
:10307000A4E06A2E712C18161CF466246394712C3B
:10308000A50194016DA17EA18FA198A50E94B51EF6
:1030900018166CF0A70196016DA17EA18FA198A5CD
:1030A0000E94B51E87FF03C0E3E06E2E712CA501C0
:1030B00094016DA17EA18FA198A50E94B51E87FFE6
:1030C0000DC0A70196016DA17EA18FA198A50E94B8
:1030D000BE2187FD03C072E0672E712C2CE0A9A1F0
:1030E000BAA1E22F1D92EA95E9F78DA59EA5AFA59D
:1030F000B8A98D8B9E8BAF8BB88FB0588D8F9E8F5C
:10310000AF8FB8A3EBA1FCA111922A95E9F72DA5E9
:103110003EA54FA558A929833A834B835C838987B1
:103120009A87AB87BC876414750409F42CC231E01C
:103130004316510409F099C142E06416710409F480
:10314000BCC153E06516710409F4A1C184E068169E
:10315000710409F4C8C1312C212CC5C190E080E074
:103160000E94B6018DCD90E080E00E94B601AECD08
:1031700020E030E0A9016DA57EA58FA598A90E9449
:10318000BE218DA49EA4AFA4B8A8181624F0B7FA47
:10319000B094B7F8B09420E030E0A9016DA17EA111
:1031A0008FA198A50E94BE214DA05EA06FA078A41B
:1031B000181624F077FA709477F87094A3019201AE
:1031C000C501B4010E94B51E18160CF4A5C0A501D6
:1031D0009401C301B2010E94EF206B017C010E94A7
:1031E000612169A77AA78BA79CA70E94BC1E9B019F
:1031F000AC01C701B6010E94532069AB7AAB8BAB1F
:103200009CAB1DAA1EAA1FAA18AEC12CD12C7601F8
:10321000412C512C320129A53AA54BA55CA550950E
:103220004095309521953F4F4F4F5F4F29AF3AAFB3
:103230004BAF5CAF6DA97EA98FA998AD0E94BC1E53
:103240009B01AC01C501B4010E94BE2118160CF00F
:10325000B0CD20E030E0A9016DA17EA18FA198A59D
:103260000E94BE2187FD4FC049A55AA56BA57CA52C
:103270004C0D5D1D6E1D7F1D81E00E94FF0220E050
:1032800030E0A9016DA57EA58FA598A90E94BE2159
:1032900041E050E060E070E087FF03C04FEF5FEF78
:1032A000BA0180E00E94FF0229A93AA94BA95CA9B2
:1032B000C301B2010E9454202B013C0120E030E008
:1032C00040E85FE30E94BE21C12CD12C760187FD2E
:1032D0000EC020E030E040E85FE3C301B2010E948D
:1032E00053202B013C01C12CD12C7601C3948DA914
:1032F0009EA9AFA9B8AD0196A11DB11D8DAB9EAB26
:10330000AFABB8AF97CF49AD5AAD6BAD7CAD4C19F3
:103310005D096E097F09B0CFA3019201C501B40117
:103320000E94EF206B017C010E94612169A77AA7AE
:103330008BA79CA70E94BC1E9B01AC01C701B601D4
:103340000E94532069AB7AAB8BAB9CAB1DAA1EAA23
:103350001FAA18AEC12CD12C7601812C912C5401BE
:1033600029A53AA54BA55CA550954095309521958A
:103370003F4F4F4F5F4F29AF3AAF4BAF5CAF6DA997
:103380007EA98FA998AD0E94BC1E9B01AC01C30110
:10339000B2010E94BE2118160CF00BCD20E030E0E7
:1033A000A9016DA57EA58FA598A90E94BE2187FDC4
:1033B0004FC049A55AA56BA57CA54C0D5D1D6E1D82
:1033C0007F1D80E00E94FF0220E030E0A9016DA196
:1033D0007EA18FA198A50E94BE2141E050E060E04F
:1033E00070E087FF03C04FEF5FEFBA0181E00E94FA
:1033F000FF0229A93AA94BA95CA9C501B4010E9401
:1034000054204B015C0120E030E040E85FE30E9483
:10341000BE21C12CD12C760187FD0EC020E030E00A
:1034200040E85FE3C501B4010E9453204B015C01F9
:10343000C12CD12C7601C3948DA99EA9AFA9B8AD9A
:103440000196A11DB11D8DAB9EABAFABB8AF97CFB1
:1034500049AD5AAD6BAD7CAD4C195D096E097F0964
:10346000B0CF44244394512CC3CD92E0491651046B
:1034700091F4A1E06A16710409F446C2B3E06B1638
:103480007104D9F0E4E06E16710409F064CE23E013
:10349000222E312C28C0F3E04F16510491F421E084
:1034A00062167104A1F332E06316710409F42CC2B0
:1034B00044E06416710409F04ECE54E0252E312C00
:1034C00012C054E04516510409F045CE81E068165B
:1034D000710499F392E069167104C9F2A3E06A16C7
:1034E000710409F038CE5EA24DA21AAA19AAE9A960
:1034F000FAA92E163F0609F4A9C02DA13EA121501C
:1035000031093AA729A74DA15EA14415550509F037
:1035100070C151E02516310409F0C1C121968FAD6B
:1035200021978F939FAD9F93AEADAF93BDADBF93EA
:103530008DA89EA8AFA8B8AC6201EDA4FEA40FA50B
:1035400018A929962CAD3DAD4EAD5FAD299769AD5B
:103550007AAD8BAD9CAD0E943A070F900F900F9003
:103560000F9029A53AA5232B21F444E050E05AA757
:1035700049A789A99AA901969AAB89ABA9A5BAA529
:10358000BEA3ADA3B4CF25962CAD3DAD4EAD5FAD82
:10359000259769AD7AAD8BAD9CAD0E94C20B4B01F6
:1035A0005C01A70196012D966CAD7DAD8EAD9FADF2
:1035B0002D970E9453209B01AC0129966CAD7DADE7
:1035C0008EAD9FAD29970E94C20B9B01AC01C50136
:1035D000B4010E94B51E22242394312C87FD83CF91
:1035E0006CCFE1E02E16310409F4BBCF29A93AA92A
:1035F000232B09F4B6CFE9A5FAA5EE0FFF1FEE0FB6
:10360000FF1F41E050E04C0F5D1FE40FF51F608984
:1036100071898289938921965FAD21975F93AFADC0
:10362000AF93BEADBF93EDADEF938DA89EA8AFA8AD
:10363000B8ACCDA0DEA0EDA4FEA40FA518A92996D4
:103640002CAD3DAD4EAD5FAD299785CF8091A603E2
:103650009091A7034C97D9F490E080E00E94B601C6
:103660008091F303811105C00E94000581E00E9452
:1036700000058091F203882319F080E00E94000584
:103680008091F303882319F081E00E940005809166
:10369000A8039091A9038B32910509F047C081E0FE
:1036A0008093A4038093A5038091AC03882389F0C1
:1036B00090E080E00E94B601E0913802F09139027A
:1036C00080810E948202892BB9F70E94F604109231
:1036D000AC0380E00E94AB02811109C081E00E942E
:1036E000AB0241E050E063E372E0882321F041E067
:1036F00050E065E372E087E093E00E9478052FB721
:10370000F89480916E0290916F02A0917002B09136
:1037100071022FBF80934D0290934E02A0934F02EF
:10372000B09350020E94BB060C94E9108A329105B6
:1037300029F41092A4031092A503B6CF892B09F0A7
:10374000B3CF68EE73E080E090E00E94C404ECE345
:10375000F0E0F093A903E093A803A6CFB8016F5F50
:103760007F4FFFEFCF16DF0609F0D2C04091E10393
:103770005091E203CE0101960E94EE0CCE0101961B
:103780000E94780C6093AD037093AE038093AF03F7
:103790009093B003CE0101960E944E0D1092B1039A
:1037A0001092B2031092B3031092B4036FEF7FEF45
:1037B000C8010E94EC060C945E132FEFA216B2060D
:1037C00011F40C947E1361E070E0C5010E94EC06D8
:1037D0008DED93E00E94780C6093E7037093E8030B
:1037E0008093E9039093EA0381E08093F3030C94C0
:1037F0007E134DA15EA14615570509F4F2CEE9A549
:10380000FAA5EE0FFF1FEE0FFF1F21E030E02C0F97
:103810003D1FE20FF31F2081318142815381608976
:103820007189828993892196AFAD2197AF93BFADFE
:10383000BF93EEADEF93FDADFF938DA89EA8AFA80B
:10384000B8ACCDA0DEA0EDA4FEA40FA518A983CE30
:103850004091E1035091E203B6016F5F7F4FCE01CB
:1038600001960E94EE0CCE0101960E94780C6093A6
:10387000B1037093B2038093B3039093B403CE016A
:1038800001960E944E0D1092AD031092AE0310925D
:10389000AF031092B0036FEF7FEFC6018ACFE9A5A7
:1038A000FAA5EE0FFF1FEE0FFF1F81E090E08C0FD7
:1038B0009D1FE80FF91F208131814281538121969C
:1038C0009FAD21979F93AFADAF93BEADBF93EDADCD
:1038D000EF938DA89EA8AFA8B8ACCDA0DEA0EDA4B4
:1038E000FEA40FA518A969AD7AAD8BAD9CAD0E9461
:1038F0003A070F900F900F900F90CDA0DEA0C61446
:10390000D70409F02ECE72CE82E0282E312CEBCDDA
:10391000A601CE0101960E94EE0CCE0101960E94F6
:10392000780C6093AD037093AE038093AF039093D4
:10393000B003CE0101960E944E0D4091E1035091DB
:10394000E203B6016F5F7F4FCE0101960E94EE0C3D
:10395000CE0101960E94780C6093B1037093B2037C
:103960008093B3039093B403CE0101960E944E0D51
:103970001DCFA50141505109B4016F5F7F4FCE01AA
:1039800001960E94EE0CCE0101960E94780C609385
:10399000E3037093E4038093E5039093E603CE0181
:1039A00001960E944E0D4091E1035091E203B50152
:1039B0006F5F7F4FCE0101960E94EE0CCE01019603
:1039C0000E94780C6093E7037093E8038093E90307
:1039D0009093EA03CE0101960E944E0D81E0809300
:1039E000F20303CF8DED93E00C944E0D66277727FD
:1039F0000C94361D1F93FC0199278827BC01E8947D
:103A000011911032E9F3193010F01E30C8F31B3257
:103A100051F01D3249F4689406C00E94211D610FC7
:103A2000711D811D911D119110531A30B0F33EF498
:103A300090958095709561957F4F8F4F9F4F1F9107
:103A40000895592F482F372F262F660F771F881F6D
:103A5000991F660F771F881F991F620F731F841F9E
:103A6000951F660F771F881F991F08958F929F9249
:103A7000AF92BF92CF92DF92EF92FF920F931F937C
:103A8000CF93DF935C017B016115710519F0DB01B8
:103A90008D939C9385010F5F1F4FF501D0818D2F72
:103AA00090E00E94941E6C01892BB9F5DD32B9F5C6
:103AB0000F5F1F4FD5011196DC91C1E05801F1E075
:103AC000AF1AB10843E050E062E871E0C5010E941E
:103AD0009D1E892B69F5680182E0C80ED11C45E066
:103AE00050E06DE771E0C6010E949D1E892B21F414
:103AF000680197E0C90ED11CE114F10419F0D70157
:103B0000CD92DC9260E070E080E89FEFC111FFC0D1
:103B100060E070E080E89FE7FAC05801BBCFDB327D
:103B200029F485010E5F1F4FF501D181C0E0C6CF9A
:103B300043E050E06AE771E0C5010E949D1E892BB9
:103B4000E9F0F80110E000E020E030E0A9015F01B9
:103B5000B0ED8B2E8D0E89E08815C8F19C2E6894EF
:103B600091F88C2F8870C2FF16C0811102C00F5FC0
:103B70001F4F3196D501DC91C92DE9CFE114F10435
:103B800029F00E5F1F4FF7011183008360E070E0A2
:103B900080EC9FE7BCC0882311F001501109A5E01B
:103BA000B0E00E94FB1F9B01AC01220F331F441F9A
:103BB000551F280D311D411D511D283999E939071F
:103BC000490799E15907A8F2C6609C2ED2CFAEEF03
:103BD0008A1206C0C3FD3CC09C2E689493F8C9CFDE
:103BE000DF7DD534A9F580818D3239F4C061DF01E4
:103BF0001296818162E070E006C0DF018B32C1F372
:103C0000119661E070E080535D01A61AB70A8A3010
:103C1000F8F4E0E8CE16ECE0DE065CF4B601660FE0
:103C2000771F660F771FC60ED71ECC0CDD1CC80E83
:103C3000D11C5D01FFEFAF1ABF0A8C9180538A300F
:103C4000A8F1C4FF03C0D194C194D1080C0D1D1D6F
:103C5000C1FF09C0E114F10431F081E0A81AB108F4
:103C6000D701AD92BC92CA01B9010E94BA1EC370BD
:103C7000C33009F490584B015C0120E030E0A90109
:103C80000E94B51E882309F440C0C1EBD1E017FFA4
:103C900005C0119501951109C9E9D1E06E01B8E19E
:103CA000CB1AD10880E2E82EF12C0FC0D501B1CF9C
:103CB000FE0125913591459154910E191F09C501B9
:103CC000B4010E941B1F4B015C01D501C4010E15FC
:103CD0001F0574F72497F594E794CC16DD06A9F731
:103CE0008A2F880F8B2F881F8F3F49F020E030E00C
:103CF000A901C501B4010E94B51E811106C082E26E
:103D000090E09093F6038093F503C501B401DF9131
:103D1000CF911F910F91FF90EF90DF90CF90BF90C8
:103D2000AF909F908F90089591110C94881F8032CE
:103D300019F089508550C8F70895FB01DC01415006
:103D4000504088F08D9181341CF08B350CF4805EEE
:103D5000659161341CF06B350CF4605E861B61115B
:103D600071F3990B0895881BFCCF0E94F71E08F48D
:103D700081E00895E89409C097FB3EF49095809502
:103D8000709561957F4F8F4F9F4F9923A9F0F92F21
:103D900096E9BB279395F695879577956795B7959F
:103DA000F111F8CFFAF4BB0F11F460FF1BC06F5F85
:103DB0007F4F8F4F9F4F16C0882311F096E911C097
:103DC000772321F09EE8872F762F05C0662371F0B8
:103DD00096E8862F70E060E02AF09A95660F771FCC
:103DE000881FDAF7880F9695879597F90895990FA8
:103DF0000008550FAA0BE0E8FEEF16161706E807B5
:103E0000F907C0F012161306E407F50798F0621BD5
:103E1000730B840B950B39F40A2661F0232B242BAA
:103E2000252B21F408950A2609F4A140A6958FEFC9
:103E3000811D811D08950E942E1F0C94A21F0E94B7
:103E4000941F38F00E949B1F20F0952311F00C94D2
:103E50008B1F0C94911F11240C94D61F0E94B31F2A
:103E600070F3959FC1F3950F50E0551F629FF001CD
:103E7000729FBB27F00DB11D639FAA27F00DB11DE6
:103E8000AA1F649F6627B00DA11D661F829F22276F
:103E9000B00DA11D621F739FB00DA11D621F839FF6
:103EA000A00D611D221F749F3327A00D611D231FCC
:103EB000849F600D211D822F762F6A2F11249F571A
:103EC00050409AF0F1F088234AF0EE0FFF1FBB1F1D
:103ED000661F771F881F91505040A9F79E3F5105DC
:103EE00080F00C948B1F0C94D61F5F3FE4F3983E38
:103EF000D4F3869577956795B795F795E7959F5F86
:103F0000C1F7FE2B880F911D9695879597F9089517
:103F100099278827089597F99F6780E870E060E007
:103F200008959FEF80EC089500240A941616170652
:103F300018060906089500240A941216130614069A
:103F400005060895092E0394000C11F4882352F0FD
:103F5000BB0F40F4BF2B11F460FF04C06F5F7F4FB5
:103F60008F4F9F4F089557FD9058440F551F59F09C
:103F70005F3F71F04795880F97FB991F61F09F3F56
:103F800079F087950895121613061406551FF2CF7F
:103F90004695F1DF08C0161617061806991FF1CFCF
:103FA00086957105610508940895E894BB276627F6
:103FB0007727CB0197F90895052E97FB1EF40094FF
:103FC0000E94F31F57FD07D00E940E2007FC03D06C
:103FD0004EF40C94F31F50954095309521953F4F2A
:103FE0004F4F5F4F089590958095709561957F4FE5
:103FF0008F4F9F4F08950E943020A59F900DB49F32
:10400000900DA49F800D911D11240895B7FF0C946D
:10401000FB1F0E94FB1F821B930B0895A1E21A2E27
:10402000AA1BBB1BFD010DC0AA1FBB1FEE1FFF1F5C
:10403000A217B307E407F50720F0A21BB30BE40BAC
:10404000F50B661F771F881F991F1A9469F76095F3
:104050007095809590959B01AC01BD01CF010895AD
:10406000A29FB001B39FC001A39F700D811D1124B9
:10407000911DB29F700D811D1124911D0895991BF2
:1040800079E004C0991F961708F0961B881F7A954F
:10409000C9F780950895EE0FFF1F881F8BBF07900B
:1040A000F691E02D19945058BB27AA270E946B2047
:1040B0000C94A21F0E94941F38F00E949B1F20F0B6
:1040C00039F49F3F19F426F40C94911F0EF4E095F7
:1040D000E7FB0C948B1FE92F0E94B31F58F3BA170C
:1040E000620773078407950720F079F4A6F50C940E
:1040F000D51F0EF4E0950B2EBA2FA02D0B01B901A0
:1041000090010C01CA01A0011124FF27591B99F04D
:10411000593F50F4503E68F11A16F040A22F232F59
:10412000342F4427585FF3CF469537952795A795A9
:10413000F0405395C9F77EF41F16BA0B620B730B50
:10414000840BBAF09150A1F0FF0FBB1F661F771FC1
:10415000881FC2F70EC0BA0F621F731F841F48F476
:10416000879577956795B795F7959E3F08F0B0CFFF
:104170009395880F08F09927EE0F979587950895E6
:10418000DF93DD27B92FBF7740E85FE316161706E8
:1041900048075B0718F4D92F0E94C3219F938F9380
:1041A0007F936F930E941122E4EEF0E00E9497212A
:1041B0000E94A21F2F913F914F915F910E942E1F4D
:1041C000DD2351F09058A2EA2AED3FE049EC5FE38D
:1041D000D0785D270E946B20DF910C94A21F0E9473
:1041E00003210C94A21F0E949B1F58F00E94941F51
:1041F00040F029F45F3F29F00C948B1F51110C946F
:10420000D61F0C94911F0E94B31F68F39923B1F33A
:10421000552391F3951B550BBB27AA2762177307EC
:10422000840738F09F5F5F4F220F331F441FAA1F80
:10423000A9F335D00E2E3AF0E0E832D0915050403C
:10424000E695001CCAF72BD0FE2F29D0660F771FEA
:10425000881FBB1F261737074807AB07B0E809F0D0
:10426000BB0B802DBF01FF2793585F4F3AF09E3F55
:10427000510578F00C948B1F0C94D61F5F3FE4F32C
:10428000983ED4F3869577956795B795F7959F5F98
:10429000C9F7880F911D9695879597F90895E1E0E4
:1042A000660F771F881FBB1F621773078407BA0743
:1042B00020F0621B730B840BBA0BEE1F88F7E0959E
:1042C00008950E9468216894B1110C94D61F089536
:1042D0000E94BB1F88F09F5798F0B92F9927B751BC
:1042E000B0F0E1F0660F771F881F991F1AF0BA959A
:1042F000C9F714C0B13091F00E94D51FB1E0089504
:104300000C94D51F672F782F8827B85F39F0B93FF5
:10431000CCF3869577956795B395D9F73EF490954C
:104320008095709561957F4F8F4F9F4F0895DF93D4
:10433000CF931F930F93FF92EF92DF927B018C013B
:10434000689406C0DA2EEF010E942E1FFE01E89449
:10435000A5912591359145915591A6F3EF010E94C4
:104360006B20FE019701A801DA9469F7DF90EF90C6
:10437000FF900F911F91CF91DF9108950E94F71E3A
:1043800008F48FEF08959B01AC0160E070E080E8D5
:104390009FE30C94EF2019F416F40C94911F0C94E5
:1043A00015220E94BB1FB8F39923C9F3B6F39F5798
:1043B000550B87FF0E9423220024A0E640EA9001CB
:1043C00080585695979528F4805C660F771F881F54
:1043D00020F026173707480730F4621B730B840B55
:1043E000202931294A2BA695179407942025312599
:1043F0004A2758F7660F771F881F20F026173707C0
:10440000480730F4620B730B840B200D311D411DE6
:10441000A09581F7B901842F9158880F96958795BB
:1044200008959B01AC010C941B1F9F3F31F09150EC
:1044300020F4879577956795B795880F911D969588
:10444000879597F9089591505040660F771F881F00
:10445000D2F708950F931F93CF93DF938230910586
:1044600010F482E090E0E091F903F091FA0330E07B
:1044700020E0B0E0A0E0309799F42115310509F46F
:104480004AC0281B390B24303105D8F58A819B811D
:104490006115710589F1FB0193838283FE0111C0CF
:1044A000408151810281138148175907E0F0481774
:1044B000590799F4109761F012960C93129713967E
:1044C0001C933296CF01DF91CF911F910F910895E8
:1044D0000093F9031093FA03F4CF2115310551F03D
:1044E0004217530738F0A901DB019A01BD01DF0132
:1044F000F801C1CFEF01F9CF9093FA038093F9034C
:10450000CDCFFE01E20FF31F819391932250310929
:1045100039832883D7CF2091F7033091F803232BD9
:1045200041F420910202309103023093F80320936A
:10453000F70320910002309101022115310541F469
:104540002DB73EB74091040250910502241B350B54
:10455000E091F703F091F803E217F307A0F42E1BA4
:104560003F0B2817390778F0AC014E5F5F4F2417D7
:10457000350748F04E0F5F1F5093F8034093F70341
:10458000819391939FCFF0E0E0E09CCFCF93DF93B6
:104590000097E9F0FC01329713821282A091F9038F
:1045A000B091FA03ED0130E020E01097A1F42081F2
:1045B0003181820F931F2091F7033091F803281760
:1045C000390709F061C0F093F803E093F703DF9136
:1045D000CF910895EA01CE17DF07E8F54A815B81A4
:1045E0009E0141155105B1F7E901FB83EA83499129
:1045F0005991C40FD51FEC17FD0761F4808191819B
:104600000296840F951FE9019983888382819381A3
:104610009B838A83F0E0E0E012968D919C91139742
:104620000097B9F52D913C911197CD010296820F1B
:10463000931F2091F7033091F8032817390739F6B3
:10464000309751F51092FA031092F903B093F803E2
:10465000A093F703BCCFD383C28340815181840FE1
:10466000951FC817D90761F44E5F5F4F8881998104
:10467000480F591F518340838A819B819383828392
:104680002115310509F0B0CFF093FA03E093F90357
:104690009ECFFD01DC01C0CF13821282D7CF4F9293
:1046A0005F926F927F928F929F92AF92BF92CF92C2
:1046B000DF92EF92FF920F931F93CF93DF938C01C2
:1046C000009799F4CB01DF91CF911F910F91FF904B
:1046D000EF90DF90CF90BF90AF909F908F907F90A2
:1046E0006F905F904F900C942A22FC01E60FF71F09
:1046F0009C0122503109E217F30708F4AEC0D9013A
:10470000CD91DC911197C617D70720F1C530D1059F
:1047100078F0CE0104978617970750F0C61BD70B89
:104720002297C193D1936D937C93CF010E94C622AF
:10473000C801DF91CF911F910F91FF90EF90DF9013
:10474000CF90BF90AF909F908F907F906F905F9031
:104750004F9008955B01AC1ABD0A4C018C0E9D1E52
:10476000A091F903B091FA03512C412CF12CE12CCA
:10477000109731F58091F7039091F803881599050A
:1047800009F05CC04616570608F058C08091000238
:1047900090910102009741F48DB79EB740910402B9
:1047A00050910502841B950BE817F90708F055C0D6
:1047B000F093F803E093F703F90171836083B8CFB6
:1047C0008D919C91119712966C90129713967C90F4
:1047D0001397A815B90559F56C0142E0C40ED11C18
:1047E000CA14DB0420F1AC014A195B09DA01129604
:1047F000159780F06282738251834083D9016D9353
:104800007C93E114F10471F0D7011396FC93EE93BD
:1048100012978ECF22968C0F9D1FF9019183808372
:10482000F301EFCFF093FA03E093F90381CF481639
:10483000590608F42C017D01D3019ACFCB010E94C7
:104840002A227C01009749F0AE01B8010E94302471
:10485000C8010E94C62287016BCF10E000E068CF3C
:10486000FB01DC0102C001900D9241505040D8F78D
:104870000895FB01DC0101900D920020E1F70895FD
:10488000FB01DC014150504048F001900D920020A6
:10489000C9F701C01D9241505040E0F70895FB0157
:1048A00051915523A9F0BF01DC014D9145174111EC
:1048B000E1F759F4CD010190002049F04D914015E8
:1048C0004111C9F3FB014111EFCF81E090E0019765
:1048D000089511E0CCE6D1E000E006C0802FFE0193
:1048E0000E944B202196011DCD36D10780E008079C
:0648F000A9F7F894FFCFC8
:1048F6000000FB038000080D0C0A0B0607050304E5
:10490600020000000044067805A50591061606B4C7
:1049160005080647004D005400590058005A004942
:08492600004A0079006E000058
:00000001FF
