:100000000C946D010C949E010C949E010C949E0125
:100010000C949E010C949E010C949E010C949E01E4
:100020000C949E010C949E010C949E010C949E01D4
:100030000C949E010C949E010C949E010C949E01C4
:100040000C949E010C94AB0E0C949E010C949E019A
:100050000C949E010C949E010C949E010C94D90E5C
:100060000C949E010C9449100C941F100C949E014A
:100070000C949E010C949E010C949E010C949E0184
:100080000C947D0E0C949E010C949E010C949E0188
:100090000C94F50F0C94CB0F0C949E010C949E01C4
:1000A0000C949E010C949E010C944F0E0C949E0196
:1000B0000C949E010C949E010C949E010C94210EB4
:1000C0000C949E010C949E010C949E010C94A10F23
:1000D0000C94770F0C949E010C944D0F0C94230FED
:1000E0000C949E01084AD73B3BCE016E84BCBFFDF9
:1000F000C12F3D6C74319ABD56833DDA3D00C77FF8
:1001000011BED9E4BB4C3E916BAAAABE0000008090
:100110003F000C94141F0C9427060C94CC050C94EF
:1001200063060C946F020C94A2020C9473020C945C
:1001300073100C9476020C9480020C946B020C9455
:1001400094020C949F050C94A1020C948E020C94C2
:1001500086020C9467020C948A020C9498020C9408
:10016000A6020C949C020C94B0060C9435060C94D8
:1001700061020C947C020C94DB054E414E494E49C1
:100180005459494E46CDCCCC3D0AD7233C17B7D164
:100190003877CC2B329595E6241FB14F0A0000200A
:1001A000410000C84200401C4620BCBE4CCA1B0E89
:1001B0005AAEC59D7400002100240027002A002D9E
:1001C000003000330001010000040107010A0100B2
:1001D000002200250028002B002E003100340002F0
:1001E000010000050108010B01000020002300268A
:1001F0000029002C002F003200000100000301063E
:10020000010901050505050705080808080202029D
:10021000020A0A08080404040401010101010101A1
:10022000010303030303030303040707070C0C0C78
:100230000C0C0C0C0C020202020606060606060650
:10024000060B0B0B0B0B0B0B0B01021020200808ED
:100250001020401020408002010201080402010128
:100260000204081020408080402010080402018011
:100270000402018040201008040201080402010168
:100280000204081020408001020408102040800071
:10029000000A0B02090C0D0E080703040100000000
:1002A000000000000000000000000000000000004E
:1002B000000000000000000000000012111000000B
:1002C000000000000000000000000000000000002E
:1002D0000000000000007310141F11241FBECFEF98
:1002E000D1E2DEBFCDBF00E00CBF12E0A0E0B2E083
:1002F000EAE3FDE400E00BBF02C007900D92A833D3
:10030000B107D9F725E0A8E3B2E001C01D92A23DF4
:10031000B207E1F711E0CCE6D1E000E006C021979A
:100320000109802FFE010E946D22CB36D10780E0AB
:100330000807A9F70E94EE110C948B260C9400007C
:10034000FC01A089B18982E08C93A485B5851C92BB
:10035000A685B78580E18C93108EA489B58986E047
:100360008C93A289B3898C9180618C93A289B38983
:100370008C9188608C93A289B3898C9180688C93CE
:100380000288F389E02D80818F7D808308958F928C
:100390009F92AF92BF92FF920F931F93CF93DF93E1
:1003A000F09004032FE22F1508F44CC020910603AF
:1003B00008E512E0021B110927FD1395000F111F1C
:1003C000000F111F20910503C8E8D0E0C21BD1091E
:1003D00027FDD395CC0FDD1FCC0FDD1F4E010D2E59
:1003E000000CAA08BB089801012E000C440B550B09
:1003F000281939094A095B09DC010E94282224EBEB
:1004000030E040E050E00E94FE21820E931EA41EC8
:10041000B51E8C169D062CF0E801801691060CF492
:10042000E4012297CC0FDD1F2FB7F8948F2D90E0B9
:10043000FC01EE0FFF1FE80FF91FED58FD4FD283AF
:10044000C1832FBFDF91CF911F910F91FF90BF907C
:10045000AF909F908F9008952091B8053091B90585
:100460008217930738F42091B4053091B505211512
:10047000310529F410925E028EE592E00895820F14
:10048000931F089508958150823108F05AC0E82FD3
:10049000F0E08827E15BFD4F8F4F0C946D226F02D7
:1004A0007302610267026B02A10276027C02800283
:1004B00086028A028E0294029802A1029C02A20283
:1004C000A602809180008F778093800008958091AC
:1004D00080008F7DF9CF80918000877FF5CF84B534
:1004E0008F7784BD089584B58F7DFBCF8091B00058
:1004F0008F778093B00008958091B0008F7DF9CF01
:10050000809190008F778093900008958091900063
:100510008F7DF9CF80919000877FF5CF8091A000EB
:100520008F778093A00008958091A0008F7DF9CFF0
:100530008091A000877FF5CF809120018F778093F5
:1005400020010895809120018F7DF9CF80912001B5
:10055000877FF5CFCF93DF93282F30E0F901E15764
:10056000FD4F8491F901E75BFD4FD491F901ED5FF7
:10057000FD4FC491CC23A1F081110E944302EC2FC6
:10058000F0E0EE0FFF1FE751FE4FA591B491EC9103
:10059000ED2381E090E009F480E0DF91CF910895B0
:1005A00080E090E0FACF1F93CF93DF93C82FD0E085
:1005B000FE01E558FA4F10811123B1F0CC0FDD1F79
:1005C000CC0FDD1FC15ADD4FEA81FB8180810E9483
:1005D000AA02892B49F0E881F98180810E94AA0250
:1005E00011E0892B09F010E0812FDF91CF911F914D
:1005F00008951F93CF93DF93282F30E0F901E1573F
:10060000FD4F8491F901E75BFD4FD491F901ED5F56
:10061000FD4FC491CC23A9F0162F81110E944302F3
:10062000EC2FF0E0EE0FFF1FE153FE4FA591B491C8
:100630008FB7F894EC91111108C0D095DE23DC93AC
:100640008FBFDF91CF911F910895DE2BF8CF5F927E
:100650006F927F928F929F92AF92BF92CF92DF92D2
:10066000EF92FF920F931F93CF93DF93582E6A015F
:100670007B01C82FD0E026E0829FF0011124E959C8
:10068000FD4F0280F381E02D8081F7FE3DC060E0E8
:100690000E94F902F094E094D094C094C11CD11C43
:1006A000E11CF11C812C912C540126E02C9FC001EF
:1006B0002D9F900D1124FC01E959FD4F3F01CBE422
:1006C000D0E0C814D904EA04FB0411F1852D0E947E
:1006D000D30281111DC0F3010081118161E0F80195
:1006E00080810E94F902CE010197F1F760E0F801E4
:1006F00080810E94F902CE010197F1F7FFEF8F1A76
:100700009F0AAF0ABF0ADDCF61E00E94F902CACF9B
:10071000DF91CF911F910F91FF90EF90DF90CF90DD
:10072000BF90AF909F908F907F906F905F90089553
:10073000CF93DF9390E0FC01E75BFD4F24918D5F49
:100740009D4FFC0184918823D1F090E0880F991F80
:10075000FC01EB54FE4FA591B491FC01E153FE4F17
:10076000C591D49161110EC09FB7F8948C91E22F7E
:10077000E0958E238C932881E223E8839FBFDF914D
:10078000CF9108958FB7F894EC91E22BEC938FBF43
:10079000F6CFCF92DF92EF92FF920F931F93CF93FA
:1007A000DF936901E80196E0899FF0011124E9597E
:1007B000FD4F3183208313830283F582E48294E02A
:1007C000899FF0011124E558FA4F41A352A363A376
:1007D00074A361E0F90180810E94980361E088813F
:1007E0000E94980361E0F70180810E94980360E015
:1007F000F60180810E94F90260E088810E94F9027E
:1008000061E0F7018081DF91CF911F910F91FF90FF
:10081000EF90DF90CF900C94F902AF92BF92CF92FD
:10082000DF92EF92FF920F931F93CF93DF936B01B1
:100830007A01EC01CA5ADD4F28813CE0389F8001E3
:10084000399F100D1124A0900303B12C27FF1FC066
:10085000FB011182108288818F5F888388819801D3
:10086000280F311D87FD3A95F6012A153B051CF42A
:1008700088818C30C4F180819181049680349C49B8
:1008800008F473C0F60180819181049670C088815C
:100890009801280F311D87FD3A952A153B05DCF696
:1008A0008881A801480F511D87FD5A95FA01EE0F66
:1008B000FF1FE40FF51FED58FD4F808186FFCBCF62
:1008C0008881F801E80FF11D87FDFA95CF01EE0F41
:1008D000FF1FE80FF91FED58FD4F808160E08F7317
:1008E0000E94F902B8CF808191812881A801420F2E
:1008F000511D27FD5A959A01FA01EE0FFF1FE20FD5
:10090000F31FED58FD4F21813281820F931FF701B4
:100910009183808388819801280F311D87FD3A9546
:10092000F901EE0FFF1FE20FF31FED58FD4F80811D
:1009300086FF22C08881080F111D87FD1A95F801D6
:10094000EE0FFF1FE00FF11FED58FD4F808161E0BA
:100950008F73DF91CF911F910F91FF90EF90DF90F8
:10096000CF90BF90AF900C94F90280E49CE9F7011E
:10097000918380838FEF8883DF91CF911F910F91B7
:10098000FF90EF90DF90CF90BF90AF9008953FB76A
:10099000F8948091520290915302A0915402B09128
:1009A000550226B5A89B05C02F3F19F00196A11D41
:1009B000B11D3FBFBA2FA92F982F8827BC01CD01A9
:1009C000620F711D811D911D42E0660F771F881F08
:1009D000991F4A95D1F708958F929F92AF92BF9237
:1009E000CF92DF92EF92FF924B015C010E94C7040D
:1009F0006B017C010E94C7046C197D098E099F0957
:100A0000683E734081059105A8F321E0821A9108A0
:100A1000A108B10888EEC80E83E0D81EE11CF11CC5
:100A200081149104A104B10429F7FF90EF90DF90A5
:100A3000CF90BF90AF909F908F9008958AE590E0FF
:100A40000E94C70164E670E080E090E00C94EC0442
:100A50006F927F928F929F92AF92BF92CF92DF92CE
:100A6000EF92FF920F931F93CF93DF93782EC82FAF
:100A7000D0E0FE01EE0FFF1FEE0FFF1FE558FA4F0B
:100A800020E030E0A90161A172A183A194A10E949C
:100A9000D72087FF2CC08FEF9FEFC558DA4F2881F2
:100AA000222309F43DC020E436E0829F4001839F69
:100AB000900C929F900C1124092C000CAA08BB08E2
:100AC00003E010E0CC24DD24C81AD90A0D2C000C58
:100AD000EE08FF0866246394872D0E94D3028111DB
:100AE00009C0B701A601872D0E942703F5CF81E039
:100AF00090E0D3CF188264E670E080E090E00E943E
:100B0000EC04B501A401872D0E94270364E670E080
:100B100080E090E00E94EC04688201501109E1F647
:100B2000DF91CF911F910F91FF90EF90DF90CF90C9
:100B3000BF90AF909F908F907F906F900895AF92ED
:100B4000BF92CF92DF92EF92FF920F931F93CF93BA
:100B5000DF936C017B018B01040F151FEB015E011C
:100B6000AE18BF08C017D10759F06991D601ED91B1
:100B7000FC910190F081E02DC6011995892B79F740
:100B8000C501DF91CF911F910F91FF90EF90DF9002
:100B9000CF90BF90AF900895FC01538D448D252FC9
:100BA00030E0842F90E0821B930B541710F0CF9607
:100BB000089501970895FC01918D828D981761F039
:100BC000A28DAE0FBF2FB11D5D968C91928D9F5F50
:100BD0009F73928F90E008958FEF9FEF0895CF93CA
:100BE000DF93EC012FB7F89480915A0290915B0249
:100BF000A0915C02B0915D022FBF88879987AA8778
:100C0000BB87CE010E94DB0597FF1EC02FB7F8946B
:100C100080915A0290915B02A0915C02B0915D02BA
:100C20002FBF488559856A857B85841B950BA60B4C
:100C3000B70B4C815D816E817F8184179507A60774
:100C4000B707F8F28FEF9FEFDF91CF910895FC0186
:100C5000918D828D981731F0828DE80FF11D858D71
:100C600090E008958FEF9FEF0895FC01918D228D04
:100C7000892F90E0805C9F4F821B91098F73992789
:100C80000895FC01A48DA80FB92FB11DA35ABF4F21
:100C90002C91848D90E001968F739927848FA6897B
:100CA000B7892C93A089B1898C91837080648C93CF
:100CB000938D848D981306C00288F389E02D80817E
:100CC0008F7D80830895EF92FF920F931F93CF93B0
:100CD000DF93EC0181E0888F9B8D8C8D98131AC077
:100CE000E889F989808185FF15C09FB7F894EE895E
:100CF000FF896083E889F9898081837080648083BB
:100D00009FBF81E090E0DF91CF911F910F91FF9005
:100D1000EF900895F62E0B8D10E00F5F1F4F0F73AD
:100D20001127E02E8C8D8E110CC00FB607FCFACF68
:100D3000E889F989808185FFF5CFCE010E944106BF
:100D4000F1CFEB8DEC0FFD2FF11DE35AFF4FF08239
:100D50009FB7F8940B8FEA89FB8980818062CFCF9F
:100D6000CF93DF93EC01888D8823B9F0AA89BB89E2
:100D7000E889F9898C9185FD03C0808186FD0DC0CD
:100D80000FB607FCF7CF8C9185FFF2CF808185FFEE
:100D9000EDCFCE010E944106E9CFDF91CF910895BA
:100DA0008EED94E00E94350621E0892B09F420E0C5
:100DB000822F089581E494E00E94350621E0892B7A
:100DC00009F420E0822F089584EA93E00E9435061A
:100DD00021E0892B09F420E0822F089587E093E039
:100DE0000E94350621E0892B09F420E0822F089526
:100DF00080E090E0892B29F00E94D00681110E94AA
:100E0000000080E090E0892B29F00E94DA06811131
:100E10000E94000080E090E0892B29F00E94E40607
:100E200081110E94000080E090E0892B29F00E944F
:100E3000EE0681110C9400000895FC01A089B1898F
:100E40008C91A689B78982FD0FC09C91818D8F5F9F
:100E50008F73228D821749F0A18DAE0FBF2FB11D68
:100E60005D969C93818F08958C9108952F923F9267
:100E70004F925F926F927F928F929F92AF92BF92AA
:100E8000CF92DF92EF92FF920F931F93CF93DF9356
:100E9000CDB7DEB7A7970FB6F894DEBF0FBECDBFB4
:100EA0002B013C012D8F3E8F4F8F58A3ED86FE8680
:100EB0000F87188B86012D853E854F855889CA017D
:100EC000B9010E943D216BA37CA38DA39EA320E0CA
:100ED00030E040EA50E4C501B4010E943D2169833D
:100EE0007A838B839C839B01AC016D857E858F8586
:100EF00098890E9411236B017C0120E030E0A90158
:100F00000E94E02318160CF02AC1C701B6010E9406
:100F10008323698F7A8F8B8F9C8F698D7A8D8B8DD0
:100F20009C8D0E94DE206B017C01A30192016D8DDE
:100F30007E8D8F8D98A10E9475222B013C0120E0AF
:100F400030E0A9010E94E023181624F077FA70948B
:100F500077F8709429813A814B815C81C301B20199
:100F60000E9411232B013C0120E030E0A9010E94E6
:100F7000E023181624F077FA709477F87094A301A0
:100F80009201C701B6010E9475220E9483236983E2
:100F90007A838B839C830230110509F0F1C020E035
:100FA00030E0A901C501B4010E94E02318160CF03D
:100FB000DAC089869A86AB86BC86C12CD12C760194
:100FC00010E000E0312C212C412C512C612C712C93
:100FD000898D9A8DAB8DBC8D29813A814B815C8145
:100FE000281739074A075B070CF0AFC320E030E051
:100FF00040EA50E469857A858B859C850E943D2175
:101000004B015C0169817A818B819C810E94DE2089
:101010009B01AC01C501B4010E943D212D853E8597
:101020004F8558890E9475226D837E838F839887B0
:101030009B01AC010E943D219B01AC016BA17CA1F5
:101040008DA19EA10E9475220E94F323698B7D8B46
:1010500089A39AA345E050E060E070E080E00E9440
:1010600027039201A30169897D8989A19AA10E9420
:1010700075224B015C0120E030E0A9010E94E023D1
:1010800024013501181624F077FA709477F87094DB
:1010900021962CAD3DAD4EAD5FAD2197C301B201A0
:1010A0000E94D72087FF27C0A3019201C701B60184
:1010B0000E9476226B017C01AC019B0121966CADF4
:1010C0007DAD8EAD9FAD21970E94D72018160CF4F0
:1010D00052C021962CAD3DAD4EAD5FAD2197C701FD
:1010E000B6010E9475226B017C011DAD0EAD3FACB7
:1010F00021962FAC2197212F302F432D522DC50142
:10110000B4010E94762221962CAD3DAD4EAD5FAD6F
:1011100021970E9411230E948323AB01BC0181E02F
:101120000E9427032D813E814F8158856D8D7E8DD4
:101130008F8D98A10E94D72018160CF006C38981C4
:101140009A81AB81BC810196A11DB11D89839A83CF
:10115000AB83BC8349885D8869A07AA039CFC70179
:10116000B6019058D4CEA5019401505829873A87EA
:101170004B875C8722CF10E000E0312C212CBBCFC5
:101180000130110509F0F3C020E030E0A901C501EC
:10119000B4010E94E02318160CF0DCC0898A9A8AF8
:1011A000AB8ABC8AC12CD12C760110E000E0312C36
:1011B000212C21968CAD9DADAEADBFAD2197B05821
:1011C0008D839E83AF83B887298D3A8D4B8D5C8D3F
:1011D00089819A81AB81BC8182179307A407B507E7
:1011E0000CF0B3C220E030E040EA50E469897A892B
:1011F0008B899C890E943D214B015C0169817A8128
:101200008B819C810E94DE209B01AC01C501B40151
:101210000E943D2169877A878B879C879B01AC015F
:101220000E943D219B01AC016BA17CA18DA19EA1DF
:101230000E9475220E94F3236D8B79A38AA39FA33A
:1012400045E050E060E070E080E00E9427032D85DB
:101250003E854F8558896D8979A18AA19FA10E94F9
:1012600075224B015C0120E030E0A9010E94E023DF
:1012700024013501181624F077FA709477F87094E9
:10128000A301920121966CAD7DAD8EAD9FAD2197EE
:101290000E94E02318162CF5A3019201C701B601A4
:1012A0000E9476226B017C01AC019B0121966CAD02
:1012B0007DAD8EAD9FAD21970E94D72018160CF4FE
:1012C00051C021962CAD3DAD4EAD5FAD2197C7010C
:1012D000B6010E9475226B017C011D810E813F8049
:1012E0002884212F302F432D522DC501B4010E9497
:1012F000762221962CAD3DAD4EAD5FAD21970E947B
:1013000011230E948323AB01BC0181E00E942703CB
:1013100029853A854B855C856D8D7E8D8F8D98A155
:101320000E94D72018160CF010C229813A814B81F7
:101330005C812F5F3F4F4F4F5F4F29833A834B8331
:101340005C838D8999A1AAA1BFA18D879E87AF8754
:10135000B88B3ACFA50194015058298B3A8B4B8B0F
:101360005C8B20CF10E000E0312C212CBACF043070
:10137000110509F0F8C020E030E0A901C501B40171
:101380000E94E02318160CF0E1C08D8A9E8AAF8A75
:10139000B88EC12CD12C7601212C312C00E010E02C
:1013A000812C912CA12CB12C21962CAD3DAD4EADB4
:1013B0005FAD2197505829873A874B875C87898D85
:1013C0009A8DAB8DBC8D29813A814B815C81281728
:1013D00039074A075B070CF0B8C120E030E040EA6B
:1013E00050E46D897E898F89988D0E943D212B0163
:1013F0003C0169817A818B819C810E94DE209B0166
:10140000AC01C301B2010E943D219B01AC016D857D
:101410007E858F8598890E947522698B7A8B8B8B4C
:101420009C8B9B01AC010E943D219B01AC016BA1F7
:101430007CA18DA19EA10E9475220E94F3239B0195
:10144000AC0150582D833E834F8358874BEF5FEF9D
:101450006FEF7FEF80E00E9427039401A5016D816B
:101460007E818F8198850E9475224B015C0120E06E
:1014700030E0A9010E94E02324013501181624F070
:1014800077FA709477F87094A301920121966CAD6D
:101490007DAD8EAD9FAD21970E94E02318162CF5EF
:1014A000A3019201C701B6010E9476226B017C0163
:1014B000AC019B0121966CAD7DAD8EAD9FAD2197AA
:1014C0000E94D72018160CF449C021962CAD3DADD2
:1014D0004EAD5FAD2197C701B6010E9475226B0129
:1014E0007C0129843A840B851C859101A801C501E2
:1014F000B4010E94762221962CAD3DAD4EAD5FAD7C
:1015000021970E9411230E948323AB01BC0181E03B
:101510000E94270329893A894B895C896D8D7E8DCC
:101520008F8D98A10E94E02387FF0FC189819A8146
:10153000AB81BC810196A11DB11D89839A83AB83C8
:10154000BC838D809E80AF80B88439CFD501C40123
:10155000B0588D8B9E8BAF8BB88F1BCF212C312C2D
:1015600000E010E0C2CF0330110509F0EEC0CD84D9
:10157000DE84EF84F888F7FAF094F7F8F09420E02E
:1015800030E0A901C501B4010E94E02318160CF057
:10159000CFC08D829E82AF82B886812C912C54015F
:1015A000212C312C00E010E0898D9A8DAB8DBC8D03
:1015B00029813A814B815C81281739074A075B07EB
:1015C0000CF0C3C020E030E040EA50E46D817E8141
:1015D0008F8198850E943D212B013C0169817A8190
:1015E0008B819C810E94DE209B01AC01C301B20172
:1015F0000E943D219B01AC01505829873A874B87B7
:101600005C879B01AC010E943D219B01AC016BA159
:101610007CA18DA19EA10E9475220E94F3239B01B3
:10162000AC0150582D873E874F87588B4BEF5FEFAB
:101630006FEF7FEF80E00E942703A70196016D8581
:101640007E858F8598890E9475226B017C0120E040
:1016500030E0A9010E94E02326013701181624F08A
:1016600077FA709477F87094A301920121966CAD8B
:101670007DAD8EAD9FAD21970E94E02318163CF5FD
:10168000A3019201C501B4010E9476224B015C01C5
:10169000AC019B0121966CAD7DAD8EAD9FAD2197C8
:1016A0000E94D72018160CF44BC021962CAD3DADEE
:1016B0004EAD5FAD2197C501B4010E9475224B016B
:1016C0005C012DAC3EAC0FAD21961FAD2197910171
:1016D000A801C701B6010E94762221962CAD3DAD2E
:1016E0004EAD5FAD21970E9411230E948323AB0171
:1016F000BC0181E00E94270329853A854B855C85E2
:101700006D8D7E8D8F8D98A10E94E02387FF1DC077
:1017100089819A81AB81BC810196A11DB11D89830C
:101720009A83AB83BC83CD84DE84EF84F8883CCF7E
:10173000A501940150582D833E834F8358872DCFA8
:10174000212C312C00E010E0C2CFA7960FB6F89400
:10175000DEBF0FBECDBFDF91CF911F910F91FF90E4
:10176000EF90DF90CF90BF90AF909F908F907F9041
:101770006F905F904F903F902F9008954F925F929F
:101780006F927F928F929F92AF92BF92CF92DF9291
:10179000EF92FF92CF93DF932B013C0149015A0155
:1017A00060E070E0CB010E9475226B017C01A30117
:1017B000920160E070E0CB010E9475229B01AC01B8
:1017C000C701B6010E9411236B017C0120E030E0CB
:1017D000A9010E94E023181624F0F7FAF094F7F814
:1017E000F094C701B6010E94E2226B017C0120E067
:1017F00030E0A901C301B2010E94E02318165CF495
:1018000020E030E0A901C501B4010E94D720C4E066
:10181000D0E0181614F4C1E0D0E020E030E0A901D7
:10182000C301B2010E94D72018164CF020E030E02E
:10183000A901C501B4010E94D72087FD42C020E064
:1018400030E0A901C301B2010E94D72087FF12C076
:1018500020E030E0A901C501B4010E94E02387FD2A
:1018600009C0A701960166E57EE089EC90E40E943C
:1018700075220BC0C330D105D9F426E53EE049E41A
:1018800050E4C701B6010E9476226B017C01C701BA
:10189000B601DF91CF91FF90EF90DF90CF90BF9096
:1018A000AF909F908F907F906F905F904F90089532
:1018B000249769F7A701960166E57EE089E490E444
:1018C000D6CF20E030E0A901C301B2010E94D720A9
:1018D00087FFD3CF20E030E0A901C501B4010E9409
:1018E000E02387FDCACFBDCF4091B8055091B9051F
:1018F0008417950750F56115710539F19A01281B78
:10190000390B6217730708F49B01E091B405F0915D
:10191000B505421B530B5093B9054093B805481BBE
:10192000590BBC01620F731F6E0F7F1F8E0F9F1F1D
:101930000E946226E091B405F091B5058091B8054A
:101940009091B905E80FF91F10820895CF93DF93A6
:101950002091B8053091B905232B89F0FC01C09185
:10196000B405D091B50560817181CE010E947126C8
:10197000009729F08C1B9D0BDF91CF9108958FEF7D
:101980009FEFFACFCF93DF93EC018091B405909154
:10199000B5050097E9F06881798161157105B1F0AD
:1019A0004091B6055091B7052C813D8142175307F0
:1019B00068F00E945B268C819D819093B90580938D
:1019C000B8051D821C82DF91CF9108950E94E82402
:1019D000888199819093B5058093B4058A819B8114
:1019E0009093B7058093B6058C819D819093B9053E
:1019F0008093B805198218821B821A82E2CFCF9396
:101A0000DF93EC0188819981009711F00E94E8240E
:101A1000198218821D821C821B821A82DF91CF914B
:101A20000895FC0180819181009711F00C94E824C5
:101A30000895FC0180819181009711F00C94181F8A
:101A400060E070E0CB0108950F931F93CF93DF9375
:101A5000EC0188819981009759F02A813B812617F2
:101A6000370730F081E0DF91CF911F910F910895FA
:101A70008B016F5F7F4F0E947125009759F099830A
:101A800088831B830A832C813D81232B59F7FC011A
:101A90001082E8CF80E0E7CFEF92FF920F931F9381
:101AA000CF93DF93EC017B01198218821B821A828B
:101AB0001D821C82FB0101900020E9F731978F0104
:101AC000061B170BB8010E94240D811109C0CE011D
:101AD000DF91CF911F910F91FF90EF900C94FF0C2D
:101AE0001D830C83B70188819981DF91CF911F916C
:101AF0000F91FF90EF900C945B26BF92CF92DF92F4
:101B0000EF92FF920F931F93CF93DF937C016B01B2
:101B10008A014617570720F48D2D6A01062F182FCA
:101B200064E272E0C7010E944C0DC091B805D091EB
:101B3000B905CC16DD0668F50C171D0708F4E80199
:101B4000E091B405F091B505EC0FFD1FB080108257
:101B50000091B4051091B5050C0D1D1D0115110561
:101B600071F0F80101900020E9F731976F01C01A78
:101B7000D10AB601C7010E94240D811115C0C70109
:101B80000E94FF0C8091B4059091B505C80FD91F34
:101B9000B882C701DF91CF911F910F91FF90EF9015
:101BA000DF90CF90BF900895F701D582C482B8012D
:101BB000808191810E945B26E5CFCF92DF92EF92E8
:101BC000FF920F931F93CF93DF931F921F92CDB776
:101BD000DEB78C016B0164E272E00E944C0DC6011D
:101BE0000E94EF0597FD21C08B339105F1F08983A9
:101BF0001A82F801E480F580FFEFEF1AFF0AB701BF
:101C0000C8010E94240D882351F3F80120813181FD
:101C100084819581BE016F5F7F4F820F931F0E9469
:101C20005B26F801F582E482DACFC8010F900F90AD
:101C3000DF91CF911F910F91FF90EF90DF90CF90A8
:101C400008951F920F920FB60F9211240BB60F92A8
:101C50002F933F934F935F936F937F938F939F93B4
:101C6000AF93BF93EF93FF9348E251E064E271E0DA
:101C700090E080E00E940D04FF91EF91BF91AF9141
:101C80009F918F917F916F915F914F913F912F9194
:101C90000F900BBE0F900FBE0F901F9018951F92C4
:101CA0000F920FB60F9211240BB60F922F933F9302
:101CB0004F935F936F937F938F939F93AF93BF9354
:101CC000EF93FF9348EA50E064EA70E083E090E02D
:101CD0000E940D04FF91EF91BF91AF919F918F9161
:101CE0007F916F915F914F913F912F910F900BBE1C
:101CF0000F900FBE0F901F9018951F920F920FB666
:101D00000F9211240BB60F922F933F934F935F9333
:101D10006F937F938F939F93AF93BF93EF93FF93B3
:101D200048E950E064E970E082E090E00E940D0430
:101D3000FF91EF91BF91AF919F918F917F916F91A3
:101D40005F914F913F912F910F900BBE0F900FBE5F
:101D50000F901F9018951F920F920FB60F9211249B
:101D60000BB60F922F933F934F935F936F937F9395
:101D70008F939F93AF93BF93EF93FF9348E850E007
:101D800064E870E081E090E00E940D04FF91EF9123
:101D9000BF91AF919F918F917F916F915F914F9183
:101DA0003F912F910F900BBE0F900FBE0F901F9081
:101DB00018951F920F920FB60F9211242F933F93F5
:101DC0008F939F93AF93BF9380915A0290915B0240
:101DD000A0915C02B0915D023091510223E0230F8B
:101DE0002D3758F50196A11DB11D20935102809306
:101DF0005A0290935B02A0935C02B0935D028091C3
:101E0000520290915302A0915402B0915502019652
:101E1000A11DB11D8093520290935302A0935402CE
:101E2000B0935502BF91AF919F918F913F912F91A8
:101E30000F900FBE0F901F90189526E8230F029663
:101E4000A11DB11DD2CF1F920F920FB60F92112478
:101E50000BB60F922F933F934F935F936F937F93A4
:101E60008F939F93AF93BF93EF93FF9387E093E09C
:101E70000E944106FF91EF91BF91AF919F918F9189
:101E80007F916F915F914F913F912F910F900BBE7A
:101E90000F900FBE0F901F9018951F920F920FB6C4
:101EA0000F9211240BB60F922F933F934F935F9392
:101EB0006F937F938F939F93AF93BF93EF93FF9312
:101EC00087E093E00E941D07FF91EF91BF91AF91D2
:101ED0009F918F917F916F915F914F913F912F9142
:101EE0000F900BBE0F900FBE0F901F9018951F9272
:101EF0000F920FB60F9211240BB60F922F933F93B0
:101F00004F935F936F937F938F939F93AF93BF9301
:101F1000EF93FF9384EA93E00E944106FF91EF91D3
:101F2000BF91AF919F918F917F916F915F914F91F1
:101F30003F912F910F900BBE0F900FBE0F901F90EF
:101F400018951F920F920FB60F9211240BB60F9295
:101F50002F933F934F935F936F937F938F939F93B1
:101F6000AF93BF93EF93FF9384EA93E00E941D0722
:101F7000FF91EF91BF91AF919F918F917F916F9161
:101F80005F914F913F912F910F900BBE0F900FBE1D
:101F90000F901F9018951F920F920FB60F92112459
:101FA0000BB60F922F933F934F935F936F937F9353
:101FB0008F939F93AF93BF93EF93FF9381E494E04C
:101FC0000E944106FF91EF91BF91AF919F918F9138
:101FD0007F916F915F914F913F912F910F900BBE29
:101FE0000F900FBE0F901F9018951F920F920FB673
:101FF0000F9211240BB60F922F933F934F935F9341
:102000006F937F938F939F93AF93BF93EF93FF93C0
:1020100081E494E00E941D07FF91EF91BF91AF9181
:102020009F918F917F916F915F914F913F912F91F0
:102030000F900BBE0F900FBE0F901F9018951F9220
:102040000F920FB60F9211240BB60F922F933F935E
:102050004F935F936F937F938F939F93AF93BF93B0
:10206000EF93FF938EED94E00E944106FF91EF9174
:10207000BF91AF919F918F917F916F915F914F91A0
:102080003F912F910F900BBE0F900FBE0F901F909E
:1020900018951F920F920FB60F9211240BB60F9244
:1020A0002F933F934F935F936F937F938F939F9360
:1020B000AF93BF93EF93FF938EED94E00E941D07C3
:1020C000FF91EF91BF91AF919F918F917F916F9110
:1020D0005F914F913F912F910F900BBE0F900FBECC
:1020E0000F901F90189580910303803308F072C100
:1020F00091E0980F909303038093040390E0FC0118
:10210000EE0FFF1FE80FF91FED58FD4F88EB9BE026
:102110009283818310920A031092090348EE53E0E0
:1021200060E070E040930B0350930C0360930D0349
:1021300070930E0385E192E0909308038093070368
:1021400025E331E0309314032093130324E331E0BB
:10215000309316032093150320E331E030931803E6
:102160002093170321E331E030931A0320931903DE
:1021700022E331E030931C0320931B0326E331E07C
:1021800030931E0320931D0310922003109221030D
:1021900010922203109223031092A7031092A60319
:1021A0004093A8035093A9036093AA037093AB03D1
:1021B0009093A5038093A40325ED30E03093B10301
:1021C0002093B00324ED30E03093B3032093B203A7
:1021D00020ED30E03093B5032093B40321ED30E0DF
:1021E0003093B7032093B60322ED30E03093B90368
:1021F0002093B80326ED30E03093BB032093BA035D
:102200001092BD031092BE031092BF031092C00340
:1022100010924404109243044093450450934604A2
:102220006093470470934804909342048093410460
:102230002DEC30E030934E0420934D042CEC30E034
:102240003093500420934F0428EC30E03093520434
:102250002093510429EC30E030935404209353042C
:102260002AEC30E030935604209355042EEC30E0F5
:10227000309358042093570410925A0410925B0430
:1022800010925C0410925D041092E1041092E0043C
:102290004093E2045093E3046093E4047093E504F4
:1022A0009093DF048093DE0485EC90E09093EB0440
:1022B0008093EA0484EC90E09093ED048093EC0426
:1022C00080EC90E09093EF048093EE0481EC90E03A
:1022D0009093F1048093F00482EC90E09093F304E7
:1022E0008093F20486EC90E09093F5048093F404DC
:1022F0001092F7041092F8041092F9041092FA0464
:1023000010927C0510927B05ECE9F5E088E0DF0196
:102310001D928A95E9F764E272E084EB95E00E94F1
:102320004C0D1092BA051092BB051092BC0510928C
:10233000BD051092BE051092BF051092C005109207
:10234000C1051092C2051092C3051092C4051092E7
:10235000C5058BE590E09093C7058093C605109264
:10236000C80581E090E090937E0580937D058CE325
:1023700090E09093800580937F05109282051092E3
:10238000810510928305109290051092910510928C
:102390009205109293051092940510929505109253
:1023A0009605109297051092A4051092A50510921B
:1023B000A6051092A7051092A8051092A9051092E3
:1023C000AA051092AB051092C9051092CA05109289
:1023D000CB0508958FEF809304039CCECF93DF93BA
:1023E000CDB7DEB7CC54D1090FB6F894DEBF0FBE1F
:1023F000CDBF789484B5826084BD84B5816084BD8E
:1024000085B5826085BD85B5816085BD80916E0092
:10241000816080936E0010928100809181008260C3
:102420008093810080918100816080938100809100
:1024300080008160809380008091B10084608093EF
:10244000B1008091B00081608093B00080919100D4
:1024500082608093910080919100816080939100CF
:10246000809190008160809390008091A1008260B3
:102470008093A1008091A10081608093A100809150
:10248000A00081608093A0008091210182608093F0
:10249000210180912101816080932101809120019F
:1024A00081608093200180917A00846080937A001B
:1024B00080917A00826080937A0080917A008160B6
:1024C00080937A0080917A00806880937A001092DD
:1024D000C1008EED94E00E94A00181E494E00E948E
:1024E000A00184EA93E00E94A00187E093E00E94AB
:1024F000A00110E1E12E12E0F12E0FE012E02EE03B
:1025000032E04AE057ED63E27AEB80E00E94C903D3
:102510000DE0E02E02E0F02E0CE012E02BE032E0C5
:102520004AE057ED63E27AE381E00E94C9038091BB
:102530000403803308F052C061E089E00E949803F0
:1025400080910403282F30E0F901EE0FFF1FE20F06
:10255000F31FED58FD4F9081907C9960908310920D
:102560000503109206032CE0622F0E946122829FD5
:10257000B001112430E020E0AB01420F531FFA01FB
:10258000EE0FFF1FE40FF51FED58FD4F908196FDF4
:1025900017C02F5F3F4F2C30310571F7813009F0A4
:1025A0006AC11092800082E08093810010928500C1
:1025B00010928400B19A80916F00826080936F00C6
:1025C000E09104038E2F90E0FC01EE0FFF1FE80F57
:1025D000F91FED58FD4F80818064808390E080E09A
:1025E0000E94C7018AE092E09093600280935F02AC
:1025F00089E092E0909362028093610260E08BE058
:102600000E94980360E08AE00E94980311E0109312
:102610007B0588E092E0909364028093630287E0F8
:1026200092E0909366028093650260E08CE00E94E5
:10263000980360E08DE00E94980310937C0586E08B
:1026400092E0909339028093380260E088E00E9423
:1026500098039E012F5E3F4F3AA329A3AE014B5F23
:102660005F4F5CA34BA32FB7F89480915A029091CF
:102670005B02A0915C02B0915D022FBF40914D02C0
:1026800050914E0260914F0270915002841B950B45
:10269000A60BB70B853F9140A105B105B0F0809125
:1026A0004C02882391F0E0916B02F0916C0261E0A2
:1026B00080810E94F902E0917102F091720261E062
:1026C00080810E94F90210924C028EED94E00E94EB
:1026D0003506181619060CF4FAC081E494E00E943D
:1026E0003506181619060CF4F4C084EA93E00E942B
:1026F0003506181619060CF4EEC087E093E00E9428
:102700003506181619060CF0E8C083E01092AC05E7
:102710001092AD051092AE051092AF051092B00563
:102720001092B1051092B2051092B3051092BA053D
:102730001092BB051092BC051092BD051092BE050B
:102740001092BF051092C0051092C1051092C205EB
:102750001092C3051092C4051092C5051092C905C8
:102760001092CA051092CB056EED74E0882361F0DB
:1027700061E474E0813041F064EA73E0823021F07A
:10278000833071F467E073E0CE0101960E94DD0DA5
:10279000CE0101960E94C20CCE0101960E94110D3D
:1027A00063E272E0CE0101960E944C0DCE010196CB
:1027B0000E94A60C8C01CE0101960E94110D65E2CB
:1027C00072E0CE0101960E944C0DCE0101960E944E
:1027D000A60C5C01CE0101960E94110D67E272E029
:1027E000CE0101960E944C0DCE0101960E94A60CCE
:1027F0006C01CE0101960E94110D0F3F100709F4E4
:10280000ABC0480193E0890E911CA401B8016F5F31
:102810007F4FCE0101960E947D0D89819A81412CC6
:10282000512C3201009719F00E941C1F2B017201DC
:10283000CE0101960E94110DABE54A16510409F034
:102840004EC08091C6059091C7058B35910519F052
:1028500081E08093C805EBE5F0E0F093C705E093D5
:10286000C60552E0E516F10409F056C0F0927E0567
:10287000E0927D056DC0823061F4109290008093EB
:102880009100109295001092940088BB8093710083
:1028900097CE833069F41092A00082E08093A1006B
:1028A0001092A5001092A40089BB8093720088CE7C
:1028B000811186CE1092200182E080932101109236
:1028C0002501109224018ABB8093730079CE80E0A9
:1028D0001DCF81E01BCF82E019CF8FEF17CFFAE534
:1028E0004F16510489F48091C6059091C7058A3529
:1028F000910519F081E08093C8052AE530E0309316
:10290000C7052093C605ADCF3CE14316510451F4F1
:1029100050927E0540927D0583E0E816F10409F4AB
:10292000A5CF07C04114510451F410927E051092B6
:102930007D059CE5E916F10409F498CF09C041E052
:102940004416510409F08DCF50927E0540927D05CA
:10295000B401C8010E94740CAFEFAA16BA0699F12F
:102960004501B3E08B0E911CA401B5016F5F7F4F51
:10297000CE0101960E947D0D89819A81412C512CB6
:102980003201009719F00E941C1F2B01CE01019605
:102990000E94110DEAE24E16510429F4509280056E
:1029A00040927F050CC0FBE24F165104B9F341146D
:1029B000510409F005C11092800510927F05B40101
:1029C000C5010E94740C3FEFC316D30661F1860166
:1029D0000D5F1F4FA801B6016F5F7F4FCE010196BB
:1029E0000E947D0D89819A81009709F4F4C00E94AC
:1029F0001C1F7B01CE0101960E94110DE114F10410
:102A000009F0EDC08091810590918205892B19F024
:102A100081E0809383051092820510928105B801B0
:102A2000C6010E94740C69E272E0CE0101960E9418
:102A30004C0DCE0101960E94A60C5C01CE010196C0
:102A40000E94110D6BE272E0CE0101960E944C0DC6
:102A5000CE0101960E94A60C4C01CE0101960E9467
:102A6000110D6DE272E0CE0101960E944C0DCE0177
:102A700001960E94A60C7C01CE0101960E94110DC8
:102A80006FE272E0CE0101960E944C0DCE010196DC
:102A90000E94A60C8C01CE0101960E94110D61E3EB
:102AA00072E0CE0101960E944C0DCE0101960E946B
:102AB000A60C6C01CE0101960E94110D80917D053E
:102AC00090917E0502970297D8F40F3F100711F0FE
:102AD0000C94D01DAFEFCA16DA0611F00C944A1E02
:102AE0001092840510928505109286051092870534
:102AF000109288051092890510928A0510928B0514
:102B0000BFEF8B169B0611F40C94FF1DEFEFAE1672
:102B1000BE0611F00C94DB1E61E070E0C4010E945F
:102B2000740C84EB95E00E94190D6093BA057093C4
:102B3000BB058093BC059093BD0581E08093C905DA
:102B4000FFEFEF16FF0609F486C081E08093CB0506
:102B500064E272E0CE0101960E944C0D2FEFE21A62
:102B6000F20AC7010E942C02DC018C91082E000C95
:102B7000990BC0970A9708F046C0C7010E942C0223
:102B8000FC018081898B1A8A0D811E810F5F1F4F86
:102B9000B801CE0101960E94240D882369F0298195
:102BA0003A818D819E81BE016F5E7F4F820F931FA0
:102BB0000E945B261E830D83BFEFEB1AFB0AD1CF69
:102BC0002CE34216510409F0FACE6FEF7FEFC401F7
:102BD0000E94740CE3CE60E070E0CB010ACFEA946F
:102BE000EF2809F01CCF8091810590918205019713
:102BF00019F081E08093830581E090E09093820555
:102C0000809381050CCFC7010E942C02DC018C91BE
:102C10008D3209F4B2CFC7010E942C02FC018081E1
:102C20008B3209F4AACFC7010E942C02DC018C91DF
:102C30008E3209F4A2CFCE0101960E94190D609345
:102C4000C2057093C3058093C4059093C505CE015A
:102C500001960E94110D00917D0510917E058090D6
:102C6000900590909105A0909205B0909305C0902A
:102C70009405D0909505E0909605F0909705043066
:102C8000110508F0A1C18091C6059091C7058A354C
:102C9000910509F024C18091C905882309F140906C
:102CA000BA055090BB056090BC057090BD05A501AC
:102CB0009401C301B2010E94D720882349F020E08B
:102CC00030E0A901C301B2010E94D72087FF2FC0C5
:102CD0001092AC051092AD051092AE051092AF05A2
:102CE0008091CA05882309F47EC04090BE055090AB
:102CF000BF056090C0057090C105A7019601C30192
:102D0000B2010E94D720882349F020E030E0A901D9
:102D1000C301B2010E94D72087FF3AC01092B005CC
:102D20001092B1051092B2051092B3055CC0A501D6
:102D30009401C301B2010E94752220919C0530913B
:102D40009D0540919E0550919F050E9411232B01E6
:102D50003C0120E030E0A9010E94E02320E030E0C7
:102D600040E05FE387FD0FC0C301B2010E947622FD
:102D70000E9483236093AC057093AD058093AE05EC
:102D80009093AF05ADCFC301B2010E947522F0CF81
:102D9000A7019601C301B2010E9475222091A005EE
:102DA0003091A1054091A2055091A3050E941123E5
:102DB0002B013C0120E030E0A9010E94E02320E04B
:102DC00030E040E05FE387FDFAC0C301B2010E943A
:102DD00076220E9483236093B0057093B10580939F
:102DE000B2059093B3058092A4059092A505A09298
:102DF000A605B092A705C092A805D092A905E092B9
:102E0000AA05F092AB050C35110509F4E6C06091F6
:102E1000AC057091AD058091AE059091AF0561153F
:102E2000710581059105C1F00E94DE2020919C056D
:102E300030919D0540919E0550919F050E943D2136
:102E4000A50194010E9476226093900570939105EC
:102E500080939205909393056091B0057091B105B0
:102E60008091B2059091B3056115710581059105B9
:102E7000C1F00E94DE202091A0053091A105409173
:102E8000A2055091A3050E943D21A70196010E9431
:102E900076226093940570939505809396059093A0
:102EA00097050C31110509F0C0C08091C905882330
:102EB00041F0109290051092910510929205109297
:102EC00093058091CA05882309F4AFC01092940538
:102ED000109295051092960510929705A6C08B3515
:102EE000910509F080CF8091C9058823C9F04090F1
:102EF000BA055090BB056090BC057090BD0520E000
:102F000030E0A901C301B2010E94D72081112AC07B
:102F10001092AC051092AD051092AE051092AF055F
:102F20008091CA05882309F45ECF4090BE05509079
:102F3000BF056090C0057090C10520E030E0A90198
:102F4000C301B2010E94D720882309F4E7CE209163
:102F5000A0053091A1054091A2055091A305C301A0
:102F6000B20124CF20919C0530919D0540919E0592
:102F700050919F05C301B2010E9411232B013C0116
:102F800020E030E0A9010E94E02320E030E040E0B2
:102F90005FE387FD0FC0C301B2010E9476220E9449
:102FA00083236093AC057093AD058093AE05909339
:102FB000AF05B6CFC301B2010E947522F0CFC301A5
:102FC000B2010E94752205CF1092AC051092AD059A
:102FD0001092AE051092AF05A1CE8091C90588234D
:102FE00081F08091BA059091BB05A091BC05B0918C
:102FF000BD058093900590939105A0939205B093A1
:1030000093058091CA05882381F08091BE05909137
:10301000BF05A091C005B091C10580939405909320
:103020009505A0939605B09397058091CB058823CD
:1030300081F08091C2059091C305A091C405B09123
:10304000C5058093980590939905A0939A05B09330
:103050009B0580914C0281111FC0E0916B02F091A1
:103060006C0260E080810E94F90262E070E080E022
:1030700090E00E94EC04E0917102F091720260E035
:1030800080810E94F90262E070E080E090E00E949E
:10309000EC0481E080934C028091CB05882391F071
:1030A00020E030E0A9016091980570919905809128
:1030B0009A0590919B050E94D72018160CF470C2B7
:1030C0000E941E0580917D0590917E0582309105BC
:1030D00008F091C04091AC055091AD056091AE05EE
:1030E0007091AF05452B462B472B69F44091B005F5
:1030F0005091B1056091B2057091B305452B462BF7
:10310000472B09F478C0019709F04FC20E941E05B1
:103110008091C905882371F08091CA0581110AC088
:103120004091AC055091AD056091AE057091AF0531
:103130000E9427038091CA05882379F08091C905F0
:1031400081110BC04091B0055091B1056091B2055D
:103150007091B30581E00E9427038091CA058823FE
:1031600009F449C08091C905882309F444C06091DD
:10317000B0057091B1058091B2059091B3050E94A0
:10318000DE206DA37EA38FA398A76091AC057091FC
:10319000AD058091AE059091AF050E94DE206DA730
:1031A0007EA78FA798AB20E030E0A9010E94D7202E
:1031B000882359F020E030E0A9016DA17EA18FA104
:1031C00098A50E94D7208111F5C16DA57EA58FA578
:1031D00098A90E948323AB01BC0180E00E942703D1
:1031E0006DA17EA18FA198A50E948323AB01BC0194
:1031F00081E00E94270320907D0530907E0592E0BB
:103200002916310409F044C420E030E0A90160919E
:1032100084057091850580918605909187050E94AF
:10322000D720811110C020E030E0A901609188050D
:103230007091890580918A0590918B050E94D72015
:10324000882309F425C40E941E05A091A005ADAFF6
:10325000B091A105BEAFE091A205EFAFF091A3053B
:103260002196FFAF219720919C0530919D054091BB
:103270009E0550919F052DAB3EAB4FAB58AFC09014
:103280008805D0908905E0908A05F0908B058090A4
:10329000840590908505A0908605B0908705809163
:1032A000940590919505A0919605B09197052D965E
:1032B0008CAF9DAFAEAFBFAF2D97209190053091F1
:1032C000910540919205509193052DA33EA34FA3E4
:1032D00058A78091A8059091A905A091AA05B09141
:1032E000AB0589A79AA7ABA7BCA72091A4053091ED
:1032F000A5054091A6055091A70529AB3AAB4BAB6C
:103300005CAB20E030E0A9016DA97EA98FA998AD42
:103310000E94D72087FF04C0B7FAB094B7F8B094E2
:1033200020E030E0A901BDADAEADFFAD2196EFAD1F
:1033300021976B2F7A2F8F2F9E2F0E94D72087FFE8
:1033400004C0F7FAF094F7F8F094A501940169A984
:103350007AA98BA99CA90E9476224B015C01A70146
:10336000960169A57AA58BA59CA50E9476226B0182
:103370007C01A501940169A97AA98BA99CA90E9445
:10338000752269AF7AAF8BAF9CAFA701960169A593
:103390007AA58BA59CA50E94752225966CAF7DAF62
:1033A0008EAF9FAF259729AD3AAD4BAD5CADCA014D
:1033B000B9010E943D212B013C0125962CAD3DAD6C
:1033C0004EAD5FAD2597CA01B9010E943D219B0119
:1033D000AC01C301B2010E9476220E94F3236DA7C3
:1033E0007EA78FA798ABA50194016DA17EA18FA1A7
:1033F00098A50E94752229966CAF7DAF8EAF9FAFC6
:103400002997A501940169A97AA98BA99CA90E9471
:10341000E02318160CF047C2A701960169A57AA50A
:103420008BA59CA50E94D72018160CF43CC284E002
:10343000482E512CA501940169A97AA98BA99CA9B0
:103440000E94D72018166CF0A701960169A57AA5ED
:103450008BA59CA50E94D72087FF03C013E0412EB7
:10346000512CA501940169A97AA98BA99CA90E9454
:10347000D72087FF0DC0A701960169A57AA58BA566
:103480009CA50E94E02387FD03C0B2E04B2E512C87
:10349000A50194016DA17EA18FA198A50E94E023B2
:1034A00018166CF4A70196016DA17EA18FA198A5B5
:1034B0000E94D720A4E06A2E712C18161CF46624F2
:1034C0006394712CA50194016DA17EA18FA198A593
:1034D0000E94D72018166CF0A70196016DA17EA15D
:1034E0008FA198A50E94D72087FF03C0E3E06E2E2E
:1034F000712CA50194016DA17EA18FA198A50E94B8
:10350000D72087FF0DC0A70196016DA17EA18FA1D5
:1035100098A50E94E02387FD03C072E0672E712CFE
:103520002CE0A9A1BAA1E22F1D92EA95E9F78DA599
:103530009EA5AFA5B8A98D8B9E8BAF8BB88FB058C9
:103540008D8F9E8FAF8FB8A3EBA1FCA111922A950E
:10355000E9F72DA53EA54FA558A929833A834B83AA
:103560005C8389879A87AB87BC876414750409F4E8
:103570002CC231E04316510409F099C142E06416AF
:10358000710409F4BCC153E06516710409F4A1C1CA
:1035900084E06816710409F4C8C1312C212CC5C11E
:1035A00090E080E00E94C7018DCD90E080E00E9415
:1035B000C701AECD20E030E0A9016DA57EA58FA5A5
:1035C00098A90E94E0238DA49EA4AFA4B8A81816C1
:1035D00024F0B7FAB094B7F8B09420E030E0A90135
:1035E0006DA17EA18FA198A50E94E0234DA05EA0B1
:1035F0006FA078A4181624F077FA709477F8709476
:10360000A3019201C501B4010E94D72018160CF441
:10361000A5C0A5019401C301B2010E9411236B0151
:103620007C010E94832369A77AA78BA79CA70E948D
:10363000DE209B01AC01C701B6010E94752269AB77
:103640007AAB8BAB9CAB1DAA1EAA1FAA18AEC12CCD
:10365000D12C7601412C512C320129A53AA54BA53C
:103660005CA550954095309521953F4F4F4F5F4F4A
:1036700029AF3AAF4BAF5CAF6DA97EA98FA998ADCA
:103680000E94DE209B01AC01C501B4010E94E02331
:1036900018160CF0B0CD20E030E0A9016DA17EA19C
:1036A0008FA198A50E94E02387FD4FC049A55AA588
:1036B0006BA57CA54C0D5D1D6E1D7F1D81E00E94DC
:1036C000270320E030E0A9016DA57EA58FA598A96C
:1036D0000E94E02341E050E060E070E087FF03C01B
:1036E0004FEF5FEFBA0180E00E94270329A93AA9B2
:1036F0004BA95CA9C301B2010E9476222B013C01B7
:1037000020E030E040E85FE30E94E023C12CD12CB0
:10371000760187FD0EC020E030E040E85FE3C301A2
:10372000B2010E9475222B013C01C12CD12C7601E3
:10373000C3948DA99EA9AFA9B8AD0196A11DB11DD5
:103740008DAB9EABAFABB8AF97CF49AD5AAD6BADBC
:103750007CAD4C195D096E097F09B0CFA3019201C0
:10376000C501B4010E9411236B017C010E948323D7
:1037700069A77AA78BA79CA70E94DE209B01AC01BA
:10378000C701B6010E94752269AB7AAB8BAB9CABCB
:103790001DAA1EAA1FAA18AEC12CD12C7601812CFD
:1037A000912C540129A53AA54BA55CA550954095AF
:1037B000309521953F4F4F4F5F4F29AF3AAF4BAFF9
:1037C0005CAF6DA97EA98FA998AD0E94DE209B01F8
:1037D000AC01C301B2010E94E02318160CF00BCD1E
:1037E00020E030E0A9016DA57EA58FA598A90E94D3
:1037F000E02387FD4FC049A55AA56BA57CA54C0DBC
:103800005D1D6E1D7F1D80E00E94270320E030E0DB
:10381000A9016DA17EA18FA198A50E94E02341E09E
:1038200050E060E070E087FF03C04FEF5FEFBA0148
:1038300081E00E94270329A93AA94BA95CA9C501E7
:10384000B4010E9476224B015C0120E030E040E8A8
:103850005FE30E94E023C12CD12C760187FD0EC0CE
:1038600020E030E040E85FE3C501B4010E9475222A
:103870004B015C01C12CD12C7601C3948DA99EA96A
:10388000AFA9B8AD0196A11DB11D8DAB9EABAFAB7D
:10389000B8AF97CF49AD5AAD6BAD7CAD4C195D0952
:1038A0006E097F09B0CF44244394512CC3CD92E0DC
:1038B0004916510491F4A1E06A16710409F446C254
:1038C000B3E06B167104D9F0E4E06E16710409F0F0
:1038D00064CE23E0222E312C28C0F3E04F16510491
:1038E00091F421E062167104A1F332E063167104D1
:1038F00009F42CC244E06416710409F04ECE54E081
:10390000252E312C12C054E04516510409F045CE45
:1039100081E06816710499F392E069167104C9F2A6
:10392000A3E06A16710409F038CE5EA24DA21AAA6D
:1039300019AAE9A9FAA92E163F0609F4A9C02DA1D2
:103940003EA1215031093AA729A74DA15EA14415F6
:10395000550509F070C151E02516310409F0C1C1C7
:1039600021968FAD21978F939FAD9F93AEADAF936F
:10397000BDADBF938DA89EA8AFA8B8AC6201EDA461
:10398000FEA40FA518A929962CAD3DAD4EAD5FAD97
:10399000299769AD7AAD8BAD9CAD0E9436070F902B
:1039A0000F900F900F9029A53AA5232B21F444E006
:1039B00050E05AA749A789A99AA901969AAB89AB61
:1039C000A9A5BAA5BEA3ADA3B4CF25962CAD3DAD98
:1039D0004EAD5FAD259769AD7AAD8BAD9CAD0E94C4
:1039E000BE0B4B015C01A70196012D966CAD7DAD20
:1039F0008EAD9FAD2D970E9475229B01AC0129963B
:103A00006CAD7DAD8EAD9FAD29970E94BE0B9B0125
:103A1000AC01C501B4010E94D72022242394312C8B
:103A200087FD83CF6CCFE1E02E16310409F4BBCFC4
:103A300029A93AA9232B09F4B6CFE9A5FAA5EE0FD7
:103A4000FF1FEE0FFF1F41E050E04C0F5D1FE40F22
:103A5000F51F608971898289938921965FAD2197CD
:103A60005F93AFADAF93BEADBF93EDADEF938DA8B8
:103A70009EA8AFA8B8ACCDA0DEA0EDA4FEA40FA573
:103A800018A929962CAD3DAD4EAD5FAD299785CFD8
:103A900080917D0590917E054C97D9F490E080E06F
:103AA0000E94C7018091CA05811105C00E942805A6
:103AB00081E00E9428058091C905882319F080E0E3
:103AC0000E9428058091CA05882319F081E00E9490
:103AD000280580917F05909180058B32910509F032
:103AE00047C081E080937B0580937C0580918305AE
:103AF000882389F090E080E00E94C701E0913802BD
:103B0000F091390280810E94AA02892BB9F70E94A4
:103B10001E051092830580E00E94D302811109C026
:103B200081E00E94D30241E050E063E372E0882329
:103B300021F041E050E065E372E08EED94E00E94F8
:103B40009F052FB7F89480915A0290915B02A09143
:103B50005C02B0915D022FBF80934D0290934E02A4
:103B6000A0934F02B09350020E94F8060C943313B6
:103B70008A32910529F410927B0510927C05B6CF0C
:103B8000892B09F0B3CF68EE73E080E090E00E94EB
:103B9000EC048CE390E09093800580937F05A6CFA2
:103BA000B8016F5F7F4FBFEFCB16DB0609F0D2C0C5
:103BB0004091B8055091B905CE0101960E947D0D46
:103BC000CE0101960E94190D6093840570938505BE
:103BD0008093860590938705CE0101960E94110D72
:103BE000109288051092890510928A0510928B0513
:103BF0006FEF7FEFC8010E94740C0C948015EFEFFB
:103C0000AE16BE0611F40C94A01561E070E0C5017B
:103C10000E94740C84EB95E00E94190D6093BE0520
:103C20007093BF058093C0059093C10581E0809398
:103C3000CA050C94A0152DA13EA12615370509F43F
:103C4000F2CEE9A5FAA5EE0FFF1FEE0FFF1F21E050
:103C500030E02C0F3D1FE20FF31F208131814281A4
:103C6000538160897189828993892196AFAD2197AB
:103C7000AF93BFADBF93EEADEF93FDADFF938DA8B6
:103C80009EA8AFA8B8ACCDA0DEA0EDA4FEA40FA561
:103C900018A983CE4091B8055091B905B6016F5F60
:103CA0007F4FCE0101960E947D0DCE0101960E94AC
:103CB000190D609388057093890580938A05909308
:103CC0008B05CE0101960E94110D10928405109271
:103CD000850510928605109287056FEF7FEFC6016C
:103CE0008ACFE9A5FAA5EE0FFF1FEE0FFF1F41E0F7
:103CF00050E04C0F5D1FE40FF51F208131814281A0
:103D0000538121968FAD21978F939FAD9F93AEAD39
:103D1000AF93BDADBF938DA89EA8AFA8B8ACCDA002
:103D2000DEA0EDA4FEA40FA518A969AD7AAD8BADF8
:103D30009CAD0E9436070F900F900F900F90CDA072
:103D4000DEA0C614D70409F02ECE72CE82E0282E53
:103D5000312CEBCDA601CE0101960E947D0DCE0146
:103D600001960E94190D60938405709385058093D8
:103D7000860590938705CE0101960E94110D409112
:103D8000B8055091B905B6016F5F7F4FCE0101961E
:103D90000E947D0DCE0101960E94190D6093880549
:103DA0007093890580938A0590938B05CE010196C7
:103DB0000E94110D1DCFA50141505109B4016F5F43
:103DC0007F4FCE0101960E947D0DCE0101960E948B
:103DD000190D6093BA057093BB058093BC05909351
:103DE000BD05CE0101960E94110D4091B80550917C
:103DF000B905B5016F5F7F4FCE0101960E947D0D21
:103E0000CE0101960E94190D6093BE057093BF0507
:103E10008093C0059093C105CE0101960E94110DBB
:103E200081E08093C90503CF84EB95E00C94110DDC
:103E3000662777270C94581F1F93FC019927882722
:103E4000BC01E89411911032E9F3193010F01E30E2
:103E5000C8F31B3251F01D3249F4689406C00E9429
:103E6000431F610F711D811D911D119110531A3057
:103E7000B0F33EF490958095709561957F4F8F4F8C
:103E80009F4F1F910895592F482F372F262F660FC8
:103E9000771F881F991F660F771F881F991F620F52
:103EA000731F841F951F660F771F881F991F089522
:103EB0008F929F92AF92BF92CF92DF92EF92FF923A
:103EC0000F931F93CF93DF935C017B016115710505
:103ED00019F0DB018D939C9385010F5F1F4FF50156
:103EE000D0818D2F90E00E94B6206C01892BB9F50E
:103EF000DD32B9F50F5F1F4FD5011196DC91C1E09E
:103F00005801F1E0AF1AB10843E050E062E871E017
:103F1000C5010E94BF20892B69F5680182E0C80EA7
:103F2000D11C45E050E06DE771E0C6010E94BF2062
:103F3000892B21F4680197E0C90ED11CE114F1042A
:103F400019F0D701CD92DC9260E070E080E89FEF3D
:103F5000C111FFC060E070E080E89FE7FAC058013F
:103F6000BBCFDB3229F485010E5F1F4FF501D181F4
:103F7000C0E0C6CF43E050E06AE771E0C5010E94AF
:103F8000BF20892BE9F0F80110E000E020E030E0EC
:103F9000A9015F01B0ED8B2E8D0E89E08815C8F167
:103FA0009C2E689491F88C2F8870C2FF16C08111E6
:103FB00002C00F5F1F4F3196D501DC91C92DE9CFAB
:103FC000E114F10429F00E5F1F4FF7011183008304
:103FD00060E070E080EC9FE7BCC0882311F00150E6
:103FE0001109A5E0B0E00E941D229B01AC01220F47
:103FF000331F441F551F280D311D411D511D2839E8
:1040000099E93907490799E15907A8F2C6609C2E3A
:10401000D2CFAEEF8A1206C0C3FD3CC09C2E68947E
:1040200093F8C9CFDF7DD534A9F580818D3239F47D
:10403000C061DF011296818162E070E006C0DF019D
:104040008B32C1F3119661E070E080535D01A61AD6
:10405000B70A8A30F8F4E0E8CE16ECE0DE065CF44D
:10406000B601660F771F660F771FC60ED71ECC0CE2
:10407000DD1CC80ED11C5D01FFEFAF1ABF0A8C9189
:1040800080538A30A8F1C4FF03C0D194C194D108F1
:104090000C0D1D1DC1FF09C0E114F10431F081E0D8
:1040A000A81AB108D701AD92BC92CA01B9010E9409
:1040B000DC20C370C33009F490584B015C0120E050
:1040C00030E0A9010E94D720882309F440C0C1EB49
:1040D000D1E017FF05C0119501951109C9E9D1E09B
:1040E0006E01B8E1CB1AD10880E2E82EF12C0FC0A6
:1040F000D501B1CFFE0125913591459154910E190D
:104100001F09C501B4010E943D214B015C01D5018D
:10411000C4010E151F0574F72497F594E794CC1687
:10412000DD06A9F78A2F880F8B2F881F8F3F49F054
:1041300020E030E0A901C501B4010E94D72081111F
:1041400006C082E290E09093CD058093CC05C50136
:10415000B401DF91CF911F910F91FF90EF90DF900D
:10416000CF90BF90AF909F908F90089591110C9435
:10417000AA21803219F089508550C8F70895FB01B3
:10418000DC014150504088F08D9181341CF08B351A
:104190000CF4805E659161341CF06B350CF4605E4C
:1041A000861B611171F3990B0895881BFCCF0E9447
:1041B000192108F481E00895E89409C097FB3EF4C2
:1041C00090958095709561957F4F8F4F9F4F992364
:1041D000A9F0F92F96E9BB279395F69587957795E2
:1041E0006795B795F111F8CFFAF4BB0F11F460FFA2
:1041F0001BC06F5F7F4F8F4F9F4F16C0882311F0FA
:1042000096E911C0772321F09EE8872F762F05C00D
:10421000662371F096E8862F70E060E02AF09A95A8
:10422000660F771F881FDAF7880F9695879597F99D
:104230000895990F0008550FAA0BE0E8FEEF161637
:104240001706E807F907C0F012161306E407F5078A
:1042500098F0621B730B840B950B39F40A2661F0FE
:10426000232B242B252B21F408950A2609F4A140A1
:10427000A6958FEF811D811D08950E9450210C94F9
:10428000C4210E94B62138F00E94BD2120F0952360
:1042900011F00C94AD210C94B32111240C94F8214D
:1042A0000E94D52170F3959FC1F3950F50E0551FE3
:1042B000629FF001729FBB27F00DB11D639FAA277B
:1042C000F00DB11DAA1F649F6627B00DA11D661FCA
:1042D000829F2227B00DA11D621F739FB00DA11DEB
:1042E000621F839FA00D611D221F749F3327A00DA5
:1042F000611D231F849F600D211D822F762F6A2F41
:1043000011249F5750409AF0F1F088234AF0EE0FA5
:10431000FF1FBB1F661F771F881F91505040A9F7D2
:104320009E3F510580F00C94AD210C94F8215F3F25
:10433000E4F3983ED4F3869577956795B795F7950E
:10434000E7959F5FC1F7FE2B880F911D9695879586
:1043500097F9089599278827089597F99F6780E826
:1043600070E060E008959FEF80EC089500240A94C7
:104370001616170618060906089500240A94121640
:104380001306140605060895092E0394000C11F473
:10439000882352F0BB0F40F4BF2B11F460FF04C020
:1043A0006F5F7F4F8F4F9F4F089557FD9058440F79
:1043B000551F59F05F3F71F04795880F97FB991F84
:1043C00061F09F3F79F08795089512161306140641
:1043D000551FF2CF4695F1DF08C0161617061806CE
:1043E000991FF1CF86957105610508940895E894A9
:1043F000BB2766277727CB0197F90895052E97FBF2
:104400001EF400940E94152257FD07D00E9430220E
:1044100007FC03D04EF40C9415225095409530952E
:1044200021953F4F4F4F5F4F089590958095709520
:1044300061957F4F8F4F9F4F08950E945222A59FF5
:10444000900DB49F900DA49F800D911D112408958F
:10445000B7FF0C941D220E941D22821B930B08950E
:10446000A1E21A2EAA1BBB1BFD010DC0AA1FBB1F78
:10447000EE1FFF1FA217B307E407F50720F0A21BEA
:10448000B30BE40BF50B661F771F881F991F1A9457
:1044900069F760957095809590959B01AC01BD0181
:1044A000CF010895A29FB001B39FC001A39F700DDB
:1044B000811D1124911DB29F700D811D1124911D2C
:1044C0000895991B79E004C0991F961708F0961B70
:1044D000881F7A95C9F780950895EE0FFF1F881FF2
:1044E0008BBF0790F691E02D19945058BB27AA274F
:1044F0000E948D220C94C4210E94B62138F00E94A3
:10450000BD2120F039F49F3F19F426F40C94B32117
:104510000EF4E095E7FB0C94AD21E92F0E94D52124
:1045200058F3BA17620773078407950720F079F4E8
:10453000A6F50C94F7210EF4E0950B2EBA2FA02DC2
:104540000B01B90190010C01CA01A0011124FF2740
:10455000591B99F0593F50F4503E68F11A16F0403B
:10456000A22F232F342F4427585FF3CF469537953A
:104570002795A795F0405395C9F77EF41F16BA0BFF
:10458000620B730B840BBAF09150A1F0FF0FBB1FAD
:10459000661F771F881FC2F70EC0BA0F621F731FF6
:1045A000841F48F4879577956795B795F7959E3F53
:1045B00008F0B0CF9395880F08F09927EE0F9795E4
:1045C00087950895DF93DD27B92FBF7740E85FE334
:1045D0001616170648075B0718F4D92F0E94E52323
:1045E0009F938F937F936F930E943324E4EEF0E0C8
:1045F0000E94B9230E94C4212F913F914F915F9156
:104600000E945021DD2351F09058A2EA2AED3FE0AC
:1046100049EC5FE3D0785D270E948D22DF910C94F6
:10462000C4210E9425230C94C4210E94BD2158F06E
:104630000E94B62140F029F45F3F29F00C94AD218F
:1046400051110C94F8210C94B3210E94D52168F3E8
:104650009923B1F3552391F3951B550BBB27AA273B
:1046600062177307840738F09F5F5F4F220F331F75
:10467000441FAA1FA9F335D00E2E3AF0E0E832D03D
:1046800091505040E695001CCAF72BD0FE2F29D040
:10469000660F771F881FBB1F261737074807AB0712
:1046A000B0E809F0BB0B802DBF01FF2793585F4F87
:1046B0003AF09E3F510578F00C94AD210C94F8210E
:1046C0005F3FE4F3983ED4F3869577956795B79569
:1046D000F7959F5FC9F7880F911D9695879597F974
:1046E0000895E1E0660F771F881FBB1F62177307ED
:1046F0008407BA0720F0621B730B840BBA0BEE1F02
:1047000088F7E09508950E948A236894B1110C946B
:10471000F82108950E94DD2188F09F5798F0B92F65
:104720009927B751B0F0E1F0660F771F881F991FE6
:104730001AF0BA95C9F714C0B13091F00E94F72170
:10474000B1E008950C94F721672F782F8827B85F80
:1047500039F0B93FCCF3869577956795B395D9F73E
:104760003EF490958095709561957F4F8F4F9F4F48
:104770000895DF93CF931F930F93FF92EF92DF92F1
:104780007B018C01689406C0DA2EEF010E94502153
:10479000FE01E894A5912591359145915591A6F397
:1047A000EF010E948D22FE019701A801DA9469F7BA
:1047B000DF90EF90FF900F911F91CF91DF910895BF
:1047C0000E94192108F48FEF08959B01AC0160E06D
:1047D00070E080E89FE30C94112319F416F40C9414
:1047E000B3210C9437240E94DD21B8F39923C9F337
:1047F000B6F39F57550B87FF0E9445240024A0E67F
:1048000040EA900180585695979528F4805C660F91
:10481000771F881F20F026173707480730F4621BE0
:10482000730B840B202931294A2BA69517940794E2
:10483000202531254A2758F7660F771F881F20F05B
:1048400026173707480730F4620B730B840B200DD3
:10485000311D411DA09581F7B901842F9158880F12
:104860009695879508959B01AC010C943D219F3F3F
:1048700031F0915020F4879577956795B795880F1B
:10488000911D9695879597F9089591505040660F20
:10489000771F881FD2F708950F931F93CF93DF934D
:1048A0008230910510F482E090E0E091D005F09123
:1048B000D10530E020E0B0E0A0E0309799F4211578
:1048C000310509F44AC0281B390B24303105D8F5CD
:1048D0008A819B816115710589F1FB019383828334
:1048E000FE0111C04081518102811381481759078F
:1048F000E0F04817590799F4109761F012960C935D
:10490000129713961C933296CF01DF91CF911F918E
:104910000F9108950093D0051093D105F4CF211580
:10492000310551F04217530738F0A901DB019A0114
:10493000BD01DF01F801C1CFEF01F9CF9093D1059F
:104940008093D005CDCFFE01E20FF31F81939193A9
:104950002250310939832883D7CF2091CE05309159
:10496000CF05232B41F420910202309103023093B2
:10497000CF052093CE052091000230910102211530
:10498000310541F42DB73EB7409104025091050224
:10499000241B350BE091CE05F091CF05E217F3070C
:1049A000A0F42E1B3F0B2817390778F0AC014E5F9F
:1049B0005F4F2417350748F04E0F5F1F5093CF0508
:1049C0004093CE05819391939FCFF0E0E0E09CCFA0
:1049D000CF93DF930097E9F0FC01329713821282A4
:1049E000A091D005B091D105ED0130E020E0109705
:1049F000A1F420813181820F931F2091CE05309147
:104A0000CF052817390709F061C0F093CF05E0936F
:104A1000CE05DF91CF910895EA01CE17DF07E8F5C3
:104A20004A815B819E0141155105B1F7E901FB8384
:104A3000EA8349915991C40FD51FEC17FD0761F422
:104A4000808191810296840F951FE9019983888363
:104A5000828193819B838A83F0E0E0E012968D91BE
:104A60009C9113970097B9F52D913C911197CD0129
:104A70000296820F931F2091CE053091CF05281703
:104A8000390739F6309751F51092D1051092D005BB
:104A9000B093CF05A093CE05BCCFD383C283408112
:104AA0005181840F951FC817D90761F44E5F5F4F7E
:104AB00088819981480F591F518340838A819B8146
:104AC000938382832115310509F0B0CFF093D1058E
:104AD000E093D0059ECFFD01DC01C0CF138212828E
:104AE000D7CF4F925F926F927F928F929F92AF92A9
:104AF000BF92CF92DF92EF92FF920F931F93CF93CB
:104B0000DF938C01009799F4CB01DF91CF911F9136
:104B10000F91FF90EF90DF90CF90BF90AF909F905C
:104B20008F907F906F905F904F900C944C24FC017D
:104B3000E60FF71F9C0122503109E217F30708F432
:104B4000AEC0D901CD91DC911197C617D70720F1DE
:104B5000C530D10578F0CE0104978617970750F03D
:104B6000C61BD70B2297C193D1936D937C93CF0132
:104B70000E94E824C801DF91CF911F910F91FF900F
:104B8000EF90DF90CF90BF90AF909F908F907F90ED
:104B90006F905F904F9008955B01AC1ABD0A4C0175
:104BA0008C0E9D1EA091D005B091D105512C412CA9
:104BB000F12CE12C109731F58091CE059091CF0525
:104BC0008815990509F05CC04616570608F058C0CC
:104BD0008091000290910102009741F48DB79EB739
:104BE0004091040250910502841B950BE817F907C8
:104BF00008F055C0F093CF05E093CE05F90171831D
:104C00006083B8CF8D919C91119712966C901297FA
:104C100013967C901397A815B90559F56C0142E0DD
:104C2000C40ED11CCA14DB0420F1AC014A195B0983
:104C3000DA011296159780F0628273825183408365
:104C4000D9016D937C93E114F10471F0D7011396AF
:104C5000FC93EE9312978ECF22968C0F9D1FF90135
:104C600091838083F301EFCFF093D105E093D005DA
:104C700081CF4816590608F42C017D01D3019ACF43
:104C8000CB010E944C247C01009749F0AE01B80191
:104C90000E945226C8010E94E82487016BCF10E0D1
:104CA00000E068CFFB01DC0102C001900D92415091
:104CB0005040D8F70895FB01DC0101900D920020CF
:104CC000E1F70895FB01DC014150504048F00190AC
:104CD0000D920020C9F701C01D9241505040E0F7ED
:104CE0000895FB0151915523A9F0BF01DC014D91BD
:104CF00045174111E1F759F4CD010190002049F029
:104D00004D9140154111C9F3FB014111EFCF81E0F5
:104D100090E00197089511E0CCE6D1E000E006C0F4
:104D2000802FFE010E946D222196011DCD36D107F4
:0A4D300080E00807A9F7F894FFCF10
:104D3A000000D2058000080D0C0A0B0607050304C3
:104D4A00020000000063069F05CC05B0063506DBAD
:104D5A0005270647004D005400590058005A0049DB
:084D6A00004A0079006E000010
:00000001FF
